:1000000088170020E51A000003620000D11A0000E2
:10001000D11A0000D11A0000D11A0000D11A000034
:10002000000000000000000000000000BD1B0000F8
:10003000D11A000000000000851D0000D11A000048
:100040000D1E00000D1E00000D1E00000D1E000004
:100050000D1E00000D1E00000D1E00000D1E0000F4
:100060000D1E00000D1E00000D1E00000D1E0000E4
:100070000D1E00000D1E00000D1E00000D1E0000D4
:10047C0053B94AB9002908BF00281CBF4FF0FF31FF
:10048C004FF0FF3000F00CB8ADF1080C6DE904CE64
:10049C0000F010F8DDF804E0DDE9022304B0704749
:1004AC00704700BF034613F8012B002AFBD1181A22
:1004BC00013870472DE9F0478C468E46089E15464C
:1004CC0004461946002B40F0D080724547D9B2FA49
:1004DC0082F74FB1C7F120030EFA07FCBD40BC40B8
:1004EC0020FA03F343EA0C0C4FEA154EA8B2230C86
:1004FC00BCFBFEF80EFB18CC08FB00F943EA0C43DE
:10050C00994528D9EB1808F1FF3204D2994502D944
:10051C00A8F102022B44A3EB0903A4B2B3FBFEFC2B
:10052C000EFB1C330CFB00F044EA0344A04214D92C
:10053C002C190CF1FF3304D2A04202D9ACF1020306
:10054C002C44241A43EA02401EB1FC4000233460C0
:10055C007360BDE8F0874246DDE76346F1E7002AA9
:10056C0079D0B2FA82F3002B3FD01946C1F12003A7
:10057C0002FA01F500FA01F42EFA03F20EFA01FE6A
:10058C0020FA03F3AFB243EA0E034FEA154EB2FB67
:10059C00FEFC0EFB1C201A0C0CFB07F842EA004276
:1005AC0090455AD9AA180CF1FF3004D2904502D9C3
:1005BC00ACF102002A44A2EB08029BB2B2FBFEFC97
:1005CC000EFB1C220CFB07F743EA02439F4246D961
:1005DC00EB180CF1FF3204D29F4202D9ACF10202AB
:1005EC002B44DB1B42EA004202E0AEEB0203012289
:1005FC004FEA154EAFB2200CB3FBFEFC0EFB1C33C6
:10060C000CFB07F840EA034398452AD9EB180CF188
:10061C00FF3004D2984502D9ACF102002B44A3EB75
:10062C000803A4B2B3FBFEFC0EFB1C330CFB07F758
:10063C0044EA0344A74216D92C190CF1FF3304D217
:10064C00A74202D9ACF102032C44E41B43EA00405C
:10065C000F46114678E71F2188E76046ABE76246F4
:10066C00BFE76046DBE76346EFE7734506D916B98B
:10067C00002108466DE7C6E9000EF9E7B3FA83F7E7
:10068C0087B9734501D3824207D8841A6EEB0303F2
:10069C0001209C461EB900215BE73846FAE7C6E903
:1006AC00004CF8E7C7F1200CBB4000FA07F422FA23
:1006BC000CF520FA0CF1BA401D432EFA0CF30EFA8D
:1006CC0007FE4FEA154941EA0E011FFA85FEB3FBFE
:1006DC00F9F809FB18300B0C08FB0EFA43EA00433F
:1006EC009A4540D9EB1808F1FF3004D29A4502D94B
:1006FC00A8F102002B44A3EB0A0389B2B3FBF9F86F
:10070C0009FB183308FB0EFE41EA03418E452CD938
:10071C00691808F1FF3304D28E4502D9A8F10203FF
:10072C00294443EA0040A1EB0E01A0FB029841458D
:10073C00CE46434602D306D14C4504D20138B9EB20
:10074C00020E68EB0503002EA5D0B4EB0E0261EB94
:10075C00030101FA0CFC22FA07F3F9404CEA0303FB
:10076C00C6E9003197E74046C5E74346D9E70000A4
:10077C00F8B54FF47A711D4805F061FB1C4C20460E
:10078C0006F0D6F920B91B4805F059FB0020F8BD3E
:10079C002269A1681368204623F4007313600B6868
:1007AC004FF4202209219847011E03DA124805F064
:1007BC0046FBEBE70026114D114FA3684FF4007177
:1007CC0020465B699847011E01DA0E48EFE796F068
:1007DC0001060CBF294639460B4805F030FB0021B9
:1007EC0047F6122006F050FAE7E700BF6F800000D2
:1007FC00B8740000A6800000C38000006B8000006D
:10080C0068800000E6800000068100002DE9F04FB2
:10081C0091B0009302F004030293C2F3C2030133BC
:10082C00840705460E46DDF868A00392059340F058
:10083C009C81041D002849D101F00706341DC6F126
:10084C000806009B00274FF004085A1E4FF0FF3398
:10085C00B9460193BB46434604970DB100992160FC
:10086C000598002800F3D6808F480099814203D365
:10087C008E488142C0F0CE800399601B11F0020CAF
:10088C0040F0D680B9F10F0F00F2CF80002D00F0B0
:10089C00D68009F140010DEB010E0199C0F38700E0
:1008AC000EF8200C0EF8101CBCF1000F00F0C380E9
:1008BC0060F07F000EF8200C013709F10109C5F139
:1008CC0008014FF6DA7E043406918CE00729B8D87B
:1008DC006FF01B0011B0BDE8F08F7A285BD84B2865
:1008EC000FD8472857D829282ED8252850D052D889
:1008FC00202818BF23280CBF4FF0010B4FF0000B22
:10090C0071E04C382E2846D8DFE800F06D4545459F
:10091C004545454545454545484545454545454578
:10092C0045564548485656566D486A456D451848D3
:10093C001845457F7C48454548457C0000204FF0D4
:10094C00000B4FF0040835E001212A38C0B201FA3F
:10095C0000F010EA0E0F46D110F0625C2CD110EAB8
:10096C00010B40D06046013C4444B4FBF8F408FB56
:10097C0004F425B1A3EB050CA444B445A8D8002875
:10098C0070D00599013905915AF8041B009164E760
:10099C000199013901914FF0000B24E012F8010C80
:1009AC006C2834D1002012F8023C83466C2BC8D141
:1009BC004FF008084346D6E70AF1070A2AF0070A5F
:1009CC00073424F00704FAE802BC35B10698204439
:1009DC00B0423FF67DAFC4E900BC4FF0000B0834C9
:1009EC004FF00808434612F8010F002853D0BBF112
:1009FC00000F7FF472AF2528F5D14FF0010B019B4E
:100A0C00013301934FF00408ECE7584697E70020B8
:100A1C008346A8E7039988077FF551AF4FF0010C87
:100A2C00601BB0F5007FFFF42DAF6FF0150051E7A0
:100A3C004FF0000CF5E70498013004903DE7BCF151
:100A4C00000F01D0013638E70298023600287FF4F7
:100A5C0034AF0098CDE90632FFF724FDDDE906320C
:100A6C0006442AE7042B08D10AF1040015B1DAF880
:100A7C000010216082460434B5E70AF1070323F025
:100A8C00070303F1080A1DB1D3E90001C4E9000111
:100A9C0008230834A7E7631BB3F5806FC5D23DB9B3
:100AAC00A6F10804E01815E7FC7300008888000024
:100ABC00029A9B0828602B709DF81030AAB1EB703D
:100ACC00AF702FB1002208A8C5F1010C91450ED1D1
:100ADC004FF0000AC5F101030DF1200801930DF14F
:100AEC00300BD14512D1601BF4E66B70E8E710F8BF
:100AFC00013B190608D50CEB040EB64503F07F0339
:100B0C003FF6E6AE04F8013B0132DFE71FB198F97E
:100B1C000020002A17DB029BD3B11AF80B2004F833
:100B2C00012B0022019B18191044B0423FF6D0AEA5
:100B3C0098F80000009904F8010B2046039206F087
:100B4C00C9FB039A14440AF1010A08F10108C8E729
:100B5C0098F8002055F822300093029B009845F835
:100B6C002230FFF79FFC421CDCE76FF00D00B1E672
:100B7C00014B1860704700BFF000002080B505469F
:100B8C000E461746984603F023FD034601F04AF93A
:100B9C000446DFF81890424649F800303946304692
:100BAC00A84754F8090001F0D1F800BF0800000074
:100BBC002DE9F047058B0446280717460CD501296B
:100BCC000CBF45F0100545F02005258387F31188EF
:100BDC00BFF36F8FBDE8F087022905F0070540F0E1
:100BEC009480204605F038F9052864D801A353F801
:100BFC0020F000BFD90B0000170D0000C30C000043
:100C0C00850C00009F0C0000B10C000001F00703E4
:100C1C005A1F012A1FD8002221F00701062BD4F8F5
:100C2C00008089B2C4E9002209D1434603E0628BFB
:100C3C00013262831B68002BF9D141F0020120467E
:100C4C00218305F009F94FF0000900286DD041F01F
:100C5C002001218369E0042B0AD121F0070189B21C
:100C6C002046218305F0F8F810B141F020012183D2
:100C7C004FF00008C14658E02369D3F80090238B4D
:100C8C0023F0070343F006034FF000082383464686
:100C9C004BE02369D3F80490238B23F0070343F034
:100CAC000403F1E72369D3F80890238B23F007039F
:100CBC0043F00503E8E74FF00008C146E7E70122DF
:100CCC0043F00803238387F31188BFF36F8F002A47
:100CDC003BD1B8F1000F4AD1B9F1000F02D0204638
:100CEC002C49C847EFF31187202383F31288BFF3F5
:100CFC006F8F238B23F008039BB22383D9063FD538
:100D0C0023F01002228303F007056669218B002E65
:100D1C00BFF67CAF00239946D4F8008021F0070180
:100D2C00C4E9003341F001012183238B03F0070A4E
:100D3C00AA4502D0A268002AC1D1B8F1000F02D195
:100D4C00B9F1000FDAD00022BAE7A1680029C0D0AF
:100D5C000D680029BDD03346524620464F68B8472F
:100D6C001DB12B6829461D46F3E72B46FAE7414691
:100D7C00334652462046D8F8008005F099F8A8E78B
:100D8C009A067FF523AF23F02002228303F0070598
:100D9C0027E700BFE95E00002DE9F84F8146324895
:100DAC000F4605F029F9064600284FD0BDE8F88F0C
:100DBC00237B8BB12368DB680BB1204698476368B3
:100DCC0083F806A023681B69002B37D163680422C3
:100DDC002046196805F031F9013610345C45E7D32B
:100DEC00B9F1000FE2D04FF0010A002DDED0A94678
:100DFC0095FAA5F4B4FA84F40AFA04F3260108EB84
:100E0C0004146FEA030B25EA0305237B63B158F83E
:100E1C0006301B6913BB46447368042220461968CC
:100E2C0009EA0B0905F009F9002DE1D127B140F2CF
:100E3C003910002105F028FF4D46D6E7204698478B
:100E4C000028C3D00AFA06F31D43C5E7074C054634
:100E5C00A0464FF0010ADFF818B0BFE720469847CC
:100E6C000028E1D1D7E700BF880500201C7E0000D8
:100E7C002C7E0000014B53F820007047987E000038
:100E8C0008B5034608462BB1044A136000F048FA33
:100E9C00002008BD6FF01500FBE700BFF400002038
:100EAC0000230C4A10B513700B4A0C4913600C4A02
:100EBC000C481360FFF7E4FF0B4B0C4918468B42B0
:100ECC0000D310BD1A1A5C68121101322271103352
:100EDC00F5E700BF3C0A00208005002040420F00CF
:100EEC0084050020016000001C7E00002C7E0000A8
:100EFC0070B50B4D297841B90120FFF74DFF094C16
:100F0C00094EB44202D301232B7070BD63685B7928
:100F1C001BB1236820469B6898471034F1E700BF4B
:100F2C003C0A00201C7E00002C7E000010B50446FC
:100F3C00064805F061F83CB1054BD3E8EF1F0139C9
:100F4C00C3E8E21F002AF8D110BD00BF80050020C5
:100F5C008405002070B50A4B05461B689847094C60
:100F6C00094EA860B44200D370BD63685B7923B1AD
:100F7C002368294620461B6898471034F2E700BFC7
:100F8C00F40000201C7E00002C7E0000044A054B5F
:100F9C009B1AB1EBD30F34BF52F8310000207047CD
:100FAC00B47D00001C7E00002DE9F04F87B004AF2B
:100FBC000546D7E90EBA8846144699463E6BBBF1F6
:100FCC00000F1ED0C7F804A0CDF800A010215B467E
:100FDC0000207A6BFFF71AFCB0F5006F014612D3B4
:100FEC0040F2FF7303931A4B022202930023194918
:100FFC001846CDE9003305F042F80C37BD46BDE884
:10100C00F08F5946584604F0070205F00704E40037
:10101C0044EA821444EA402444EA065417360E4447
:10102C0026F00706ADEB060D04ADBBF1000F07D0A3
:10103C00CDF800A05B467A6B05F11000FFF7E6FBDC
:10104C004B4622464146284605F000F8D5E700BF3E
:10105C0046810000D47D0000406820B1034BC01ACB
:10106C0040F3CF0070474FF0FF307047B47D000065
:10107C000EB403B503AB53F8042B0146044801939B
:10108C0001F012F902B05DF804EB03B0704700BF39
:10109C00C7600000CA0605D48B064CBF0249034941
:1010AC00FFF7E6BF704700BF7F8100007E81000024
:1010BC002DE9F04F87B09DF8489004460D469846B0
:1010CC00DDF850A0169F0492B9F1000F00F0B0802B
:1010DC0007F48073059304F0AEFF07F0020B024691
:1010EC00002874D020467A49FFF7C2FF0646BBF1B0
:1010FC00000F08D017F0440F6BD12A4620467549D3
:10110C00FFF7B6FF064407F0010353B1724B2046BC
:10111C0053F82920714B7249002A08BF1A46FFF771
:10112C00A7FF07F48073002B07F0080318BF4FF0DC
:10113C000008002B79D06B4B204653F829206A49C4
:10114C00FFF796FF0546049B2BB11A4620466749CC
:10115C00FFF78EFF0544B8F1000F05D0424620463C
:10116C006349FFF785FF054462483544139B1BB167
:10117C002246614904F030FE159B002B00F08D8057
:10118C00DDF854803946B8F1100F204628BF4FF0D7
:10119C0010080026FFF77EFFB5424FDC00263346D1
:1011AC0020461AF803205549FFF762FF0136102E2E
:1011BC004AD0710703D120465149FFF759FFB0457A
:1011CC003346EDD820464F49FFF752FFEEE706466F
:1011DC008DE74D4B1868002894D04C4B4FF47A7B1C
:1011EC001B684FF03C0CB5FBF3F5B5FBF0F14FF47D
:1011FC00616300FB11550BFB05F5B1FBF3F2B5FB7D
:10120C00F0FE03FB121100FB1E55B1FBFCF30BFBB4
:10121C0005F5B5FBF0F50CFB131120460091CDE95B
:10122C0001E53B49FFF724FF6CE707F008058AE767
:10123C00012B4D460CBF2F48364897E720463049C6
:10124C00FFF716FF0136A7E7002620463249FFF7C5
:10125C000FFF33461AF803202046A2F120035F2B20
:10126C0028BF2E222D49FFF703FF0136102E0DD07B
:10127C00720703D120462249FFF7FAFEB0453346E8
:10128C00E8D820461E49FFF7F3FEEEE7159BC24453
:10129C00B3EB080315937FF473AFB9F1000F0AD0C9
:1012AC00FB0704D520460D4A0D49FFF7E1FE3946F0
:1012BC002046FFF7EFFE6268A168D2E900232068A0
:1012CC0004F0EDFE002263681A6007B0BDE8F08FF1
:1012DC00868100008A810000A87E000081810000C8
:1012EC00AF810000BC7E0000B2810000B88100001C
:1012FC00BC810000C7600000B5220000C181000065
:10130C00C9810000C7810000900500208C050020D9
:10131C0093810000E3600000CB810000CD810000D0
:10132C0000210123064A904206D8064A01B901233E
:10133C001360054B18607047012140085B00F2E711
:10134C0040420F008C05002090050020F8B50D469A
:10135C000446064F4618B44201D12846F8BD14F88D
:10136C00011BBB6801485B689847F4E7D474000024
:10137C00014B036000207047047F000008B504484F
:10138C0004F05DFD034804F05AFD002008BD00BFC9
:10139C000A8200003F82000008B50348034A00217E
:1013AC00121A04F010FF08BDD0020020440A0020DD
:1013BC00074808B5074A0849121A04F006FFBDE8A9
:1013CC0008400648064A0749121A04F0FEBE00BF40
:1013DC0060000020D00200208888000060000020FF
:1013EC00600000208888000070B506460D4686B067
:1013FC00002938D000248B68012205934B682046C5
:10140C0004930B6823490393234BCDE900440293C7
:10141C00234604F0DCFE6B69012205932B69204600
:10142C000493EB681B4903931C4B0094CDE90143D7
:10143C00234604F0CCFEEB6901220393184B2046A3
:10144C00CDE9014313492346009404F0C0FEAB6977
:10145C0001220393134B2046CDE901430D4923464A
:10146C00009404F0B4FE012E0DD1EFF30583103B74
:10147C0003930D4B32460293002306491846CDE9DF
:10148C00003304F0A4FE2946304606B0BDE8704097
:10149C0002F062BBF47D00006C8200009B820000B5
:1014AC00CA820000D98200000783000030BFFFF71A
:1014BC00FDBF00BF2DE9F04105460B4EDFF82C8037
:1014CC00324606EB0807CC1B2046094905F002FF03
:1014DC00A01942460021083C05F009FFC5F8AC40B4
:1014EC0007F10800BDE8F0810000000004000000D6
:1014FC00707E00001FB500243E4B3F490293012231
:10150C0023462046CDE9004404F07CFE3B4B9B6A0D
:10151C0099016DD53A4B2046CDE901430122234672
:10152C003549009404F06EFE1E20344B9B6ADA01A0
:10153C000AD5344B0122029300232F491846CDE9DA
:10154C00003304F05FFE1F202C4B9B6ADB020AD594
:10155C002D4B01220293002327491846CDE9003375
:10156C0004F050FE0220254B9B6A1C030AD5274B26
:10157C0001220293002320491846CDE9003304F0E0
:10158C0041FE21201D4B9B6A59030AD5204B012299
:10159C000293002318491846CDE9003304F032FEBB
:1015AC002220164B9B6A9A030AD51A4B01220293EE
:1015BC00002311491846CDE9003304F023FE232003
:1015CC000E4B9B6ADB030AD5134B012202930023BB
:1015DC0009491846CDE9003304F014FE2420074ACB
:1015EC00936A6FEA03436FEA1343936204B010BD2E
:1015FC001D209AE71A830000F47D000000ED00E046
:10160C0032830000458300005F8300008983000063
:10161C00A7830000CC830000E6830000F0B5002413
:10162C00434B85B00293074623460E4601222046C3
:10163C00CDE900443F4904F0E5FD3F4B9B6ADB04D8
:10164C0065D53E4B2046CDE901430122234639495D
:10165C00009404F0D7FD1720374B9B6A1D050AD563
:10166C00374B01220293002332491846CDE900334F
:10167C0004F0C8FD1820304DAB6A9C051FD5002422
:10168C00304B012220460293CDE9004423462949E0
:10169C0004F0B8FDAB6BAA6A10040FD503932A4B68
:1016AC000122CDE90143204623462249009404F04F
:1016BC00A9FD1FB1AB6A23F40043AB6219201E4B8A
:1016CC009B6A59050AD5214B012202930023194923
:1016DC001846CDE9003304F095FD1A20164A936A9A
:1016EC0013F4807315D01A4B012202930023114975
:1016FC001846CDE9003304F085FD1B200E4A936A91
:10170C0043F47F4393620023337005B0F0BD162081
:10171C00A2E7926A9204F1D50E4A1846CDE901323D
:10172C0004490122009304F06DFD1C20E6E700BF84
:10173C0011840000F47D000000ED00E0278400001F
:10174C00388400004B84000064840000798400001D
:10175C0094840000AC840000F0B50024414B85B0AB
:10176C000293074623460E4601222046CDE900444B
:10177C003D4904F047FD3D4B9B6ADD066FD53C4B64
:10178C002046CDE90143012223463749009404F059
:10179C0039FD1120354B9B6A1C070AD5354B0122AC
:1017AC000293002330491846CDE9003304F02AFD9A
:1017BC0012202E4DAB6A99071FD500242E4B012207
:1017CC00029320462346CDE90044274904F01AFD34
:1017DC006B6BAA6A12060FD50393284B0122CDE935
:1017EC000143204623462049009404F00BFD1FB111
:1017FC00AB6A23F08003AB6213201C4B9B6ADD07A2
:10180C000AD51F4B01220293002317491846CDE934
:10181C00003304F0F7FC1420144B9B6A9C060AD589
:10182C00184B0122029300230F491846CDE90033CF
:10183C0004F0E8FC15200D4B9A6AD10658BF9A6A41
:10184C009A6A920642BF5A6A22F400525A629A6A03
:10185C0042F0FF029A620023337005B0F0BD1020F5
:10186C0098E700BFDB840000F47D000000ED00E091
:10187C00F184000038840000248500003C850000C1
:10188C0052850000AC8400002DE9F041794B0446F0
:10189C00D3F8048090B00023C8F3080683F31188B2
:1018AC00BFF36F8F02F07F40B0F17F4F0CD102F08D
:1018BC000C00082818D1704A1846CDE901326F493E
:1018CC000122009304F09EFC00252C460027F31EF9
:1018DC008DF81F70092B00F2B580DFE803F00BA91F
:1018EC00ADA5B3B3B3B3B3B1120746BF0C461D4697
:1018FC000125EBE7624B0122CDE9017300235F491F
:10190C001846DFF87081009704F07CFC8DF81F708E
:10191C00D8F82C6016F0020604D05A4BCDE90173AE
:10192C00009707E0D8F82C30002B0BDA564B0096BA
:10193C00CDE90163002301221846504904F062FCF2
:10194C00002239E0D8F82C305B00F9D54F4B01223E
:10195C00CDE90163304633464849009604F052FC09
:10196C00D8F81430A26943F48073C8F81430BFF36C
:10197C004F8FBFF36F8F32F8023CD8F8142022F44B
:10198C008072C8F81420BFF34F8FBFF36F8F03F42E
:10199C007F42B2F55F4F2FD1DBB2022B2CD12368E3
:1019AC00012203933A4B3046CDE901633349334668
:1019BC00009604F027FC22689DF81F30CBB908AEC6
:1019CC0004F12007334620686168083403C3BC4225
:1019DC001E46F7D10F9B002D48D0C3F3080121B947
:1019EC006FEA53236FEA43230F93104608A9FFF7BE
:1019FC00FBFC10B0BDE8F0811E4B9A6AD2B22AB142
:101A0C0001200DF11F01FFF7A7FE0FE09A6A12F4F7
:101A1C007F4F05D001200DF11F01FFF7FFFD05E001
:101A2C009B6AB3F5803F8BD3FFF764FD0246C3E797
:101A3C0000200DF11F01E6E700200DF11F01ECE77E
:101A4C00144B6BE7144A18F4F87F144B08BF134679
:101A5C00103ECDE90336124B0122029300230749B5
:101A6C001846CDE9003304F0CDFB69E76FF30803AA
:101A7C00BAE700BF00ED00E09F850000F47D000098
:101A8C00CA850000E1850000028600001086000077
:101A9C002F8600004B8600007185000086850000B3
:101AAC006F860000064B5A6942F010025A615A695F
:101ABC0042F480625A615A6922F008025A617047F6
:101ACC0000ED00E0EFF30880EFF3098101B57246F9
:101ADC00FFF7DAFE01BD00BF002080F31488BFF3CE
:101AEC006F8F002080F30A8880F30B88104880F3F6
:101AFC00088800200F49087001F0E4F900200E4915
:101B0C000860BFF34F8F00F02DF8202080F3118870
:101B1C000A484FF40061401880F30988EFF31480F1
:101B2C000221084380F31488BFF36F8F00F0A6F8EE
:101B3C0088170020410A002094ED00E0480A00209C
:101B4C00002318460649D1F89020C2F3072293428D
:101B5C0000DB7047C1F89830C1F8A0000133F6E7FC
:101B6C0000ED00E010B572B6002484F31388FFF783
:101B7C00E7FF23464FF0FF300C4A03F120010133FD
:101B8C00102B42F82100F8D100234FF0FF30074A08
:101B9C0003F160010133102B42F82100F8D162B639
:101BAC00BFF34F8FBFF36F8F10BD00BF00E100E09C
:101BBC001EF0040F0CBFEFF30880EFF3098081696E
:101BCC0011F8021C0229FFD001B5724604F00FFB7C
:101BDC0001BD00BF00B2002807DB01234109034A05
:101BEC0000F01F00834042F82130704700E100E014
:101BFC0000B200280CDB01220649430900F01F004B
:101C0C008240203341F82320BFF34F8FBFF36F8FF7
:101C1C00704700BF00E100E0054B420953F8222059
:101C2C00012300F01F0003FA00F01040704700BFC2
:101C3C0000E100E000B2002801F10101ACBF00F1AD
:101C4C006040064B4FEA4111C9B2ABBF00F5614091
:101C5C0000F00F0080F800131954704714ED00E0E9
:101C6C00044B054A23F07F039360BFF34F8FBFF300
:101C7C006F8F70470000000000ED00E008B5FFF723
:101C8C00EFFF074AD2F8883023F47003C2F888308B
:101C9C00FFF782FBFFF78CFB00F0A2F802F072F862
:101CAC0000ED00E042F8203C009B0B4942F81C3C44
:101CBC00019B21F0010142F8183C029B42F8081CE0
:101CCC0042F8143C4FF0807342F8043C0023203A55
:101CDC000265C0F8B0307047890B000000B50E4BA0
:101CEC0015469860D0F8AC200C4B0E461A60D0F814
:101CFC009C3083F30B882C4686F309880020044B18
:101D0C0098472046002100220023024C2047000067
:101D1C0049620000890B000090060020B8050020E5
:101D2C001022014B1A61704700ED00E0054B5A6917
:101D3C009B689A421FBF044A536843F08053536018
:101D4C00704700BF9006002000ED00E0084B9B6838
:101D5C0083420BD1EFF3058343B1064B5A6842F033
:101D6C0080525A605A6A22F400425A6202F036BC1F
:101D7C009006002000ED00E016498A684FF0300014
:101D8C001044EFF3098C80E8F01F202080F31288B8
:101D9C00BFF36F8F104F4FF000664A698A603E6048
:101DAC00D2F8AC000D4C2060D2F8B0000023C2F881
:101DBC00B03080F3118802F1300090E8F01F8CF302
:101DCC00098802F1000004B504F030FABDE80440C3
:101DDC00704700009006002004ED00E0B8050020DC
:101DEC000023202040F20F1210B5044CE1180133EF
:101DFC00934281F80003F9D110BD00BF00E100E06F
:101E0C0008B5EFF30583064A103B02EBC30152F809
:101E1C00330049688847BDE80840FFF787BF00BF1B
:101E2C00F07400000148006870470000B8050020FD
:101E3C001FB50121094B0A4A0A4800F01DF900237D
:101E4C00064A0393084B0121019301A8D31A02936C
:101E5C0000F01CF905B05DF804FB00BF0000042085
:101E6C0000000020047F0000D00200200A7A0B68DA
:101E7C0010B562F304031C46CB68520923F01F0310
:101E8C0043EA4203044A43F00103C2F89800C2F843
:101E9C009C40C2F8A03010BD00ED00E01FB50E4B09
:101EAC000446D3F89030C3F30723013B98420FD973
:101EBC000A4B03900293002301221846CDE900330C
:101ECC00074904F0E7F96FF01504204604B010BD83
:101EDC00FFF7CCFFF9E700BF00ED00E086860000BD
:101EEC00EC7D00002DE9F04F8946144606464FF074
:101EFC000008524D89B0C8452DDAD6F804A0BAF1C5
:101F0C00000F4AD0BAF11F0F17D91AF01F0F14D1B6
:101F1C00D6F800B01BF01F0F0FD1584604F0B1F9E2
:101F2C0007460AEB0B00013804F0ABF9874216D0D8
:101F3C006FF01507424B039702E0424BCDF80C8033
:101F4C000293002301221846CDE900333E4904F0E8
:101F5C00A1F96FF01504204609B0BDE8F08F17F118
:101F6C00160FE7D0BC42E5DDC5F89870D5F89C108B
:101F7C00C5F89870D5F8A03021F01F0143F01F0B65
:101F8C00D6E900321A44994202F1FF3A1AD1D345EC
:101F9C0007D13146F8B204F08DF908F101080C367E
:101FAC00A9E73146C5F89870D5F89C30E0B263F3D8
:101FBC000402C5F89C2004F07DF910F1160FC8D06E
:101FCC00441CEAE7C5F89870D5F8A020013B23F033
:101FDC001F0302F01F021343D3453146E0B2C5F88C
:101FEC00A030E8D004F066F910F1160FB1D0C5F8A6
:101FFC009870D5F89C209DF818300BF1FF3B62F3DC
:10200C0004038DF81830D5F8A0309DF818205B0823
:10201C0063F347128DF81820D6E900321344049369
:10202C0023F01F035B44A3EB0A03013023F01F03CF
:10203C0004A9C0B20793FFF731FFBEE700ED00E043
:10204C00D2860000AC860000EC7D00000522044B1B
:10205C00C3F89420BFF34F8FBFF36F8F704700BF4F
:10206C0000ED00E0BFF35F8F0022024BC3F8942019
:10207C00704700BF00ED00E010B5034C2278FFF76D
:10208C0031FF207010BD00BF3E0A00202DE9F74F34
:10209C00294D8A4606464FF00008AB46274FD045DF
:1020AC001BDAD6F80490B9F1000F3FD0316808461E
:1020BC00019104F0E6F80199044609EB010001389E
:1020CC0004F0DFF884424FF014021D4B08D002FBE1
:1020DC0008F36FF015024BF8032003B0BDE8F08F46
:1020EC0014F1160F2C60F8D01978A142F5DD02FB23
:1020FC0008B0C7F89840C7F89840D7F89C4000F152
:10210C000801007B64F304000871D7F8A0000C7977
:10211C00400860F347140C71D7F89C1021F01F0194
:10212C006960D7F8A01021F01F01296108F101089E
:10213C0014350C36B3E700BFBC05002000ED00E001
:10214C003E0A0020F0B55349534DD1F890302C681D
:10215C00C3F307239C4287B000F299800020FFF75D
:10216C0081FF4E4BC1F8C030844216D14C4D01A8B2
:10217C002C70FFF7FDF8002607464A4CB74213D1E6
:10218C0000202B784349D1F89020C2F307229342C8
:10219C0077DBFFF75BFF002046E0696801EB00117D
:1021AC00FFF764FE0130DFE70199300101EB061304
:1021BC00DA682240B2F1807F52D00AD8B2F5001F03
:1021CC0034D0B2F5800F3ED0B2F5801F12D001365C
:1021DC00D4E7B2F1006F43D0B2F1805FF7D15A6807
:1021EC009B680958013B22F01F00034423F01F0396
:1021FC00012032E05A689B680958013B22F01F000D
:10220C0003440120844623F01F0340EA4C10CDE91F
:10221C0002218DF8100002A928780593FFF73EFEE5
:10222C0000282ADA6FF0150007B0F0BD5A689B68D9
:10223C000958013B22F01F0003444FF0020C01200F
:10224C0023F01F03E1E75A689B680958013B22F011
:10225C001F000344062023F01F034FF0000CD4E7AB
:10226C005A689B680958013B22F01F0003444FF049
:10227C00030C012023F01F03C7E72B7801332B70CD
:10228C00A5E7C1F89830C1F8A00001337BE74FF007
:10229C00FF30C9E700ED00E0107F0000AAFF44000A
:1022AC003E0A00200000F0FFF0B587B007460E464E
:1022BC0014460021102268461D4605F018F802232A
:1022CC008DF80230054B2A4621466846CDE9047646
:1022DC00019303F0D1FA07B0F0BD00BFF362000028
:1022EC0008B5024B1B689847002008BDD00500209C
:1022FC00034B044A1860937843F0020393707047C1
:10230C00D00500200001002008B50649064821F040
:10231C000701C1F1005202F5802203F01CFD0020E0
:10232C0008BD00BF8F170020D405002008B5244A33
:10233C00244B1A6000F060F84FF47A612248D0F810
:10234C002436C3F30802C3F309434B4382F480726F
:10235C001E49883201FB02334FF4FA215B00B3FBB8
:10236C00F1F201FB12331A49B3F57A3F28BF01325F
:10237C00C1F80429D0F820364FF47A60C3F3080270
:10238C00C3F30943434342F21C5082F4807202F2BD
:10239C00172200FB02334FF47A701B0AB3FBF0F2E6
:1023AC0000FB12330020B3F5FA7F4FF0010328BF76
:1023BC000132C1F81C27C1F80009C1F8003608BD6C
:1023CC000020A1070C02002000C0FF00F82A0080AA
:1023DC000000125048B1054B054A1B68B3FBF2F3E1
:1023EC005843044B43F00103184770470C0200207C
:1023FC0040420F00807E00000122024BC3F80424EF
:10240C00704700BF002008E0084B70B5C31A0D469A
:10241C0007499B10044659434022064803F077FFB6
:10242C002B4601462046BDE870401847F4050020B5
:10243C00B76DDBB664740000402373B50B4C00938E
:10244C00041B0B460D460A49A41061430646094A73
:10245C00094803F088FF014628B130462B4602B0EC
:10246C00BDE87040184702B070BD00BFF4050020F5
:10247C00B76DDBB6DF63000064740000F8B50022B2
:10248C000121054640F20510FFF7D4FB0F4800F080
:10249C00B9FD0446B8B900F0D5FD2F690C49384692
:1024AC0003F029FD031E09DB01263E642D69084952
:1024BC0005F11C0003F01FFD031E02DA1C4620462A
:1024CC00F8BDEE64FBE76FF00404F8E709260000A2
:1024DC00387F00001FB5002201236C46CDE9022392
:1024EC006B46074ACDE9004403F06CFF28B943F66C
:1024FC0009520023684601F0A3FD04B010BD00BFD3
:10250C00F163000010B5EFF31184202383F31288DC
:10251C00BFF36F8F074A136823F00201DB071160CA
:10252C0002D4012004F0A5F884F31188BFF36F8F57
:10253C0010BD00BF440600200C22104B014602FBCC
:10254C000033002030B4D3E90E529863EFF31180BE
:10255C00202484F31288BFF36F8F1C6C04F0C0042A
:10256C0044F002041C6480F31188BFF36F8F1DB11B
:10257C002B4630BC0248184730BC7047F40500208D
:10258C006474000010B4EFF31180202282F31288DF
:10259C00BFF36F8F16490B6843F0020413F001036D
:1025AC000C6017D0134BD3F80C3413F4803311D0C8
:1025BC00EFF3118182F31288BFF36F8F0E4A136C05
:1025CC0003F0C00343F00203136481F31188BFF3DB
:1025DC006F8F012380F31188BFF36F8F1BB1002025
:1025EC0010BCFFF7A9BF012010BC04F03AB800BF23
:1025FC004406002000E01050F4050020022808D00A
:10260C00042808D1044B186C10F0070003D1FFF715
:10261C0093BF0120FBE77047F40500202DE9F04142
:10262C00012280463549D1E8EF3FC1E8E02F002870
:10263C00F9D133B9324933484B60CB608A6003F02F
:10264C006DFC08F1FF33012B4BD8B8F1010F06D10B
:10265C002D4BD3F8503403F00303012B41D004F07D
:10266C009DFA054650B1EFF31186202383F31288AF
:10267C00BFF36F8F0125244C244F20E0244B1B7893
:10268C00002BF0D00422204B0646C3F80823F2E7B7
:10269C004DB3304603F0E6FDD4F8403413F0FF039D
:1026AC000DD1D4F8082152B1C4F80831D4F808314E
:1026BC0020220123C4F84034C7F8A0212361D4F8A8
:1026CC004C24D4F84C34D203E2D503F00303012B91
:1026DC0002D0B8F1010FDBD155B186F31188BFF3ED
:1026EC006F8FBDE8F0810021202004F0CDFAD3E7F4
:1026FC000422054BC3F80423F3E700BFF0050020C8
:10270C00E00500201006002000E0105000E100E081
:10271C00410A002008B5074804F00AFA38B1064807
:10272C00FFF7E6FD0448FEF723FA002008BD6FF022
:10273C001200FBE7D4740000492700000A2838B5C2
:10274C000446074D04D1AB680D2128465B689847B9
:10275C00AB6803485B68E1B29847204638BD00BFC0
:10276C00D47400002DE9F04340F206354768D006DA
:10277C0048BF4FF0030C3B7C02EA050558BFC2F37F
:10278C00401C87B001F01F06B5F5837F144646EA5E
:10279C0043168DF803C045D00DD8062D44D005D86E
:1027AC00A5B1022D12D06FF0150038E0B5F5807F81
:1027BC00F9D101250AE040F20222954236D0B5F556
:1027CC00407F35D0B5F5007FEDD10425220331D5FE
:1027DC0001237A688B405360B86890BB5F2E06F07B
:1027EC001F034FEA561175D83C4A52F82120C4F306
:1027FC00004102EB8302D2F8803081F00101C4F376
:10280C00404423F4706344EA410423F00F031C4357
:10281C0044EA8C0444EA0524C2F88040002007B046
:10282C00BDE8F0830925D1E70825CFE70625CDE7DC
:10283C000525CBE7630341BF01237A688B40936086
:10284C00CAE731460DF1020204F0E6F814F4403FF9
:10285C0080460CD13146B86804F0F7F8B8F1000F97
:10286C00DCD19DF80210B86800F078FED6E74FF086
:10287C00000901ABCDE90199CDE90439CDF80C90F3
:10288C003146B86803AA04F010F84845C6DB14F4C6
:10289C00003314D09DF80330C4F3004484F00104D9
:1028AC008DF80E308DF80C508DF80D404B4631469E
:1028BC00B86803AA00F0A4FD0028CFDAAEE7CDE992
:1028CC0004330DF1030303933146B86803AA03F0F4
:1028DC00ECFFF1E7203350F82330FFDE5C7F000083
:1028EC004209022A034670B503D0012A18D0CAB196
:1028FC0070BD0E4E326951680029F9D0012503F0E4
:10290C001F030C689D400029F2D08A682A4002D02F
:10291C0030464B6898473CB1236821461C46F2E789
:10292C00034EE7E7034EE5E72346F6E7B8740000ED
:10293C009C7400008074000038B54568A868C0B16C
:10294C0004F07DF80146A0B9A86800F0CFFD04465C
:10295C0088B902460949A86804F05BF822460121AF
:10296C00DB20FFF767F92246012140F20D10FFF73B
:10297C0061F9002038BD6FF00400FBE7ED28000082
:10298C00F0B544681646A068227C01F01F0587B09C
:10299C0045EA421500286CD0B6F5001F04D1294633
:1029AC0004F0A5F8002055E06268607CB6F5800F55
:1029BC0050624FF0000001AA0190506039D1B3F180
:1029CC00007F14BF052304238DF804300023CDE9C8
:1029DC0004230393E3680DF1030723FA01F111F0CB
:1029EC00010139D1B6F1A07F36D105F01F035F2D5F
:1029FC004FEA551003F120033ED8214A52F820200B
:102A0C0052F82330DB0727D43A462946A06804F055
:102A1C0003F8163018D002972946A06803AA03F0D1
:102A2C0044FF002816DB01222946A06804F00FF8A9
:102A3C00B8E7B3F1C06F05D0B3F1007F14BF012329
:102A4C000223C1E70323BFE73946A06800F090FDDD
:102A5C000028E0DA07B0F0BD3A462946A06803F03A
:102A6C00DBFF0028D8D19DF80310A06800F076FD9C
:102A7C00D2E76FF08500EDE751F82330FFDE00BFA1
:102A8C005C7F0000036803F01F025F2B02604FEABB
:102A9C0053129ABF024B53F822000020704700BF1C
:102AAC00A47F00002DE9F74F154606464FF00108AC
:102ABC0000EB8101B14203D1002003B0BDE8F08FDF
:102ACC003268C2F3C323082BC2F3080400F2A080BF
:102ADC005148C75C40F2FF139C4208BF4FF0FF34D3
:102AEC00B2F1D05F4FEA126310D2192B12D8DFE883
:102AFC0003F014233734282F341111111111111133
:102B0C0011111111111111113A717477382B6AD0FE
:102B1C004E2B25D06FF08500CFE7C5F80446621C1C
:102B2C0056D001A80194FFF7ADFF019B4FF00109AE
:102B3C0008FA03F3436029E0C5F80C464FF0000A8D
:102B4C0062E04FF00009C5F80046601C16D13FE06A
:102B5C004FF00109C5F80446F7E7C5F80846EDE75C
:102B6C00C5F81046DBE7C5F860457388621C03F0B6
:102B7C0001032DD0002BD4D14FF0010901A80194F1
:102B8C00FFF780FF019B08FA03F383604FF0010A03
:102B9C00D6F800B001A81BF4004F1CBF4FF0010980
:102BAC004FF0000A0194FFF76DFF019B1B4C00EBEB
:102BBC008300D0F88020CBF3412B3B0243EA8B03FC
:102BCC0043EA0A031440234343EA4903C0F8803024
:102BDC0004366FE7C5F86445C7E7C5F86845C4E730
:102BEC00C5F86C45C1E701A80194FFF74BFF4FF006
:102BFC00010A019B00EB8300D0F8803023F0E04306
:102C0C0043F08043C0F88030631CE1D0D146BFE76D
:102C1C006FF0150051E700BF6A880000F0F0FCFF70
:102C2C002DE9F04104460D46476803F0B7FF88B123
:102C3C002021EFF311831A4681F31288BFF36F8FB3
:102C4C0060680068D0F83001D0B983F31188BFF305
:102C5C006F8FEEE71E4B1B78002BE9D04FF020084E
:102C6C00642663681B68D3F83031FBB9012003F08C
:102C7C00C1FC013EF5D10021202004F005F8EFE75E
:102C8C007B6A00201D706368796A1B68C3F83C1767
:102C9C000121C3F84017C3F83001D3F8300119658E
:102CAC0082F31188BFF36F8FBDE8F081EFF31183CE
:102CBC001A4688F31288BFF36F8F61680968D1F8E0
:102CCC0030110029DCD183F31188BFF36F8FD2E769
:102CDC00410A002070B40F4CD4E90015501A63EB74
:102CEC000506400940EAC6602026E0FB0615C4E94B
:102CFC000015002400250849C1E90023074BC3E94E
:102D0C000045EFF3118186F31288BFF36F8F70BC0F
:102D1C0001F062BEF0020020D8020020E802002080
:102D2C0008B500220121E420FEF784FF164A00209A
:102D3C00D2F8183723F44033C2F8183700F060FD8E
:102D4C00002820DB0120114900F0E6FD00281ADBE9
:102D5C0000F030FD0E4B20F01F00C3E900010D4BBD
:102D6C000022C3E900014FF0FF304FF0FF310A4B56
:102D7C00C3E90001094B0A49187A00F02BFD6722C0
:102D8C000020084B1A6008BD00200E5008020020DD
:102D9C00F0020020D0020020D80200200002002007
:102DAC00E12C00007406002008B500F003FD064A73
:102DBC00D2E90032C01A054B61EB0201C3E90001F4
:102DCC00400940EAC16008BDF0020020E802002082
:102DDC00F7B5224B0146224F187A224BD7E9005601
:102DEC00D3E900239E4208BF954211D1B1F1806F07
:102DFC000ED24901012938BF012101224D1946F19A
:102E0C000006C7E9005603B0BDE8F04000F00ABE6A
:102E1C00154BDFF858C0D3E90043DCE9002CA418AB
:102E2C0043EB0C0C4FF0200E22466346C1FB0E23E5
:102E3C00954276EB0301C7E900230DD2291B66EB03
:102E4C000C04C82974F10004B4BF012100210091C5
:102E5C0000F0B2FD03B0F0BD0021F8E70002002045
:102E6C00E0020020D8020020F0020020E80200203E
:102E7C00064BD3F840231C2A05D1D3F84403431E38
:102E8C005842584170470020704700BF00C0FF00F7
:102E9C0003689A070CD50368DB070DD50922074B8D
:102EAC00C3F80C250F22C3F8042501221A60FEE793
:102EBC00034B0360EF3B0360704700BF0080105072
:102ECC00F000FA5008B50123404A4148C2F80038D6
:102EDC00404AD2F840231C2A04BF3F4AC2F80C34A3
:102EEC00FFF7D6FF0830FFF7D3FF0830FFF7D0FF0E
:102EFC000830FFF7CDFF00F5F470FFF7C9FF374A34
:102F0C00D2F88C3043F44063C2F88C300022D300EA
:102F1C0003F57F0303F54043D3F8001401310AD0C5
:102F2C00D3F8001439B1D3F800140132D3F80434B7
:102F3C00402A0B60EBD1254BD3F84024002A41D01A
:102F4C00FFF796FF48B1234BD3F83423244B9A4216
:102F5C009EBF1E4B234AC3F84026FFF789FF18B1CA
:102F6C00214B224AC3F8AC27FFF782FF48B1342229
:102F7C00164BC3F82426D3F83C2622F40022C3F8BF
:102F8C003C261B4B1549D3F80026D20744BF6FF0E3
:102F9C000102C3F80026174BD3F8182522F00302C0
:102FAC00C3F81825D3F8182542F00302C3F81825E6
:102FBC00D1F88C2042F44062C1F88C200022C3F876
:102FCC00A02508BDC822C3F84024B9E70000125060
:102FDC0000C50D5000C0FF000030055000ED00E0B2
:102FEC00001D0A1840E0A91E00A0085078000A0431
:102FFC0000E0105000B00450014B1B68184700BF94
:10300C007806002010B50C4C237993B90123237159
:10301C000A4B0028206018BF184600F0F3F850B98E
:10302C0023680748002B08BF1846BDE8104000F085
:10303C0035B86FF0770010BD780600200530000021
:10304C006B66000008B5074B1B6853B140F20510C6
:10305C00FEF7E2FD28B9BDE8084040F20510FEF786
:10306C00B9BD08BD7806002038B504230A4C42F2DD
:10307C001075C4F80833012363610023C4F80831C8
:10308C00D4F80831D4F84C34DB0304D5012003F018
:10309C00B1FA013DF6D138BD00E01050064A137963
:1030AC003BB9012110601171044A1846C2F8403432
:1030BC0070476FF0770070478006002000E01050DA
:1030CC0010B51D4B1D4CD3F84C14D3F84C2411F4F3
:1030DC00803F19D002F00302012A01D08AB90022E4
:1030EC00154BC3F840240022C3F80821D3F808215B
:1030FC0001221A6122688AB9D3F80821002AFBD070
:10310C0014E0FFF7B1FFEAE7D3F84824D107E6D57E
:10311C00D3F850249207F4D422681AB10422C3F8CD
:10312C00042310BDD3F80821002AFBD00022C3F8D9
:10313C000821D3F80831F4E700E010508006002095
:10314C00F8B50125184C194ED4F80C3303F00C03C8
:10315C0003B9F8BDB3FA83F30027C3F11F039A0038
:10316C0002F5807292B202F1A04202F5871217604A
:10317C0005FA03F1022B1268D8B2C4F8081310D167
:10318C00D4F84C34D4F84C349B070AD10423C4F83B
:10319C004054C4F804332561D4F80C3303F00C0309
:1031AC00D6E733689847F7E700E010508006002018
:1031BC00712238B5104B0021C3F80823012242F2CA
:1031CC0010745A60C3F80011D3F800110B490A4D62
:1031DC00D1F840131C2908BFDA60D5F80C3413F46D
:1031EC00803305D0012003F005FA013CF5D138BD40
:1031FC00034A5371FBE700BF00E0105000C0FF0012
:10320C0088060020054B0246187918B91A6001226D
:10321C001A7170476FF07700704700BF8806002066
:10322C000022164BC3F81021D3F81011C3F8182143
:10323C00D3F81811C3F81421D3F814111049D1F88C
:10324C0040131C2904BF01219960C3F80021D3F855
:10325C00002101221A600B4A126852B9074BD3F8AD
:10326C000021002AFBD00022C3F80021D3F8003142
:10327C0070477122C3F80423704700BF00E0105060
:10328C0000C0FF0088060020F8B50126194C1A4D25
:10329C00D4F80C3303F0710303B9F8BDB3FA83F31C
:1032AC000021C3F11F039A0002F5807292B202F161
:1032BC00A04202F58712116006FA03F7042B12687C
:1032CC00D8B2C4F8087308D0062B10D02B689847D6
:1032DC00D4F80C3303F07103DEE702236B71C4F8EE
:1032EC001411D4F814312023C4F80433EEE76971B7
:1032FC00ECE700BF00E0105088060020036803F0E4
:10330C001F025F2B02604FEA53129ABF024B53F815
:10331C0022000020704700BF00800000034A4309D0
:10332C00D35C00F01F001844C0B2704773880000D3
:10333C00F0B50646002487B0114F019117F8012B08
:10334C0006AB03EBD20313F8143C02F00702D34094
:10335C0013F0010306D10134032CEFD100231846DE
:10336C0007B0F0BD074A03AD07CA85E8070055F85A
:10337C0024100A6A46F824200A62002AEBD0EEE7F1
:10338C0083880000707E0000F7B504460846FFF7FE
:10339C00C5FF04EB4006B38A0D46DB072AD5204651
:1033AC0003F061FA2946204603F0CEF950B12046CD
:1033BC0003F0E0F90023276807EB8000C0F8103514
:1033CC00C0F810352946204603F0FDF9002101A86C
:1033DC00B1820195FFF792FF019B00EB8300D0F8BF
:1033EC008020064B134043F00203C0F8803008469F
:1033FC0003B0F0BD6FF01500FAE700BFF0F0FCFF72
:10340C002DE9F043044685B0084615461F46FFF7E4
:10341C0085FF0E46804625B3204603F0A0F918B967
:10342C00204603F091F918BB04EB4809B9F81430A5
:10343C0003F01C0313B16B78012B19D001238DF809
:10344C000F3000233046CDE900536A1CAB1C0DF144
:10345C000F0103F021F9B9F8143043F00303A9F874
:10346C001430002F3ED03146204603F078F920B9B5
:10347C006FF0150005B0BDE8F083002239782368A1
:10348C004FEA810C03EB8103C3F81025C3F8102518
:10349C0004EB4802938A23F4604323F020039382C5
:1034AC007D78FDB12468B8786444D4F810750E4B5F
:1034BC002D043B40C4F8103541F6F07305F440354B
:1034CC0003EA06130005D4F810752B4300F48010A2
:1034DC0003433B43C4F81035938A43EA413343F02A
:1034EC00200393820020C5E70FE0ECFF70B590F845
:1034FC007440054690F8756044BB46222146143052
:10350C0003F0F5FE2146134A2B6852F836608E42C2
:10351C0012D1002440F20D10C3F84441D3F84421D9
:10352C000D4A934208BFDB20FEF754FB01232046D3
:10353C0085F874302B6670BDCAB2920002F58070AB
:10354C00442A04BF1C501A580131E0E76FF0770091
:10355C00F1E700BF0C80000000A00D5090F8750042
:10356C00024B03EB800003F061B800BF1002002097
:10357C0010B5064B90F875000C4603EB800003F079
:10358C003BF80028A4BF2070002010BD10020020C2
:10359C002DE9F04F804658F804BB90F87540DBF8E5
:1035AC0014136A4BC9B253F8342007468BB05846F3
:1035BC0041F4003103F030F98203054639D500237C
:1035CC00CDE907330993614BE60003EBC404636850
:1035DC0007A819460093FFF7ABFE331D03934FF07A
:1035EC00000A5B4B0DF11C090293029A574912F821
:1035FC00013B0292039A02EBD3028A5C03F00703AD
:10360C0022FA03F3DB071AD40AF1010ABAF1030F09
:10361C0009F10409E9D14FF400310022584603F0B6
:10362C00FBF8009907A8FFF783FE0028D7D125F4F3
:10363C0000350124002D73D10BB0BDE8F08F454B44
:10364C0053440493D9F80060002EDDD096FAA6F608
:10365C00B6FA86F6049B1C7846EA44142046FFF71B
:10366C005DFE07EB4000818AF208C1F382030593EB
:10367C000193012319F8020006F0070603FA06F677
:10368C0020EA060009F8020006A80694FFF736FEA9
:10369C00069A11F0100F02F1200250F82260059BDF
:1036AC00C6F3014623D04046019A214603F06CF83C
:1036BC0006A80694FFF722FE069BF6B2203350F8BC
:1036CC002330C3F301439E4207D10021204603F06F
:1036DC002CF83146204603F028F806A80694FFF78C
:1036EC000DFE0122069B02FA03F30362AAE7022EE7
:1036FC0014BF022103212046059303F016F8059B05
:10370C00032B03D0022E07D1012BE6D121464046D4
:10371C00019A03F039F8E0E7032EDED1022BF4E72F
:10372C0095FAA5F3B3FA83F304FA03F225EA02053A
:10373C0003F5A2725BF8222007EB43034046B3F873
:10374C006410C2F3014203F01FF873E70C80000011
:10375C0083880000838800000123034A03FA00F0E9
:10376C0093680343936070476000002073B5044670
:10377C000191EFF31186202383F31288BFF36F8F2F
:10378C000B4D019B6A6801A81340019302F034FFB2
:10379C00002807DB01226B68824023EA02036B607E
:1037AC002070002086F31188BFF36F8F02B070BDBC
:1037BC00600000204FF0FF326FF0404330B5044CF6
:1037CC00D4E90001824273EB0105F9D330BD00BF8F
:1037DC0040270E5030B50C25074B1C1894F854405C
:1037EC0005FB0433C3E9031218750123034A834014
:1037FC00C2F8243330BD00BF6000002000200E5002
:10380C00F8B53E4C2278002A72D13D4BD3F81015F6
:10381C0021F00201C3F81015D3F8101541F0010185
:10382C00C3F810150521C3F8A4160421C3F8AC166F
:10383C000723672101F001000244013BD2B24FEA99
:10384C005101F7D1052A56D119464FF0010C2B4ED8
:10385C0000256720CFB204E00CFA02F220EA020045
:10386C00013590FAA0F25FFA85FEBE45B2FA82F2FB
:10387C00F2D3013132750529224482F8547006F1D5
:10388C000C06E5D1012100251E489A0801FA02F226
:10389C0012F0670F18BF1D500433302BF5D1E42004
:1038AC00FEF798F9164B1849D3F8102503F5C07399
:1038BC0022F00202C3F8902340F6FF72C3F8A8214D
:1038CC0000221A60A3F5807004338B420260F8D199
:1038DC0001250B4B0D4A1D660D4B5D201B68B3FB80
:1038EC00F2F358430B4B2B43984700202570F8BD3F
:1038FC006FF07700FBE76FF08B00F8E760000020BB
:10390C0000200E5000210E50B0210E5040420F00EE
:10391C000C020020907E000038B5244B0D46D3F8E5
:10392C00102594073CD4D3F8102542F00202C3F8BA
:10393C001025C0B1D3F8482712F0010202BFD3F80A
:10394C00481741F00101C3F84817184BD3F840173A
:10395C00D3F844174800F9D42AB9D3F8482722F0F1
:10396C000102C3F84827124B124A1B68B3FBF2F34F
:10397C000E4A03EB4313B3B1D2F84017D2F84417F5
:10398C0049000BD44FF0FF312846FFF7EFFE0446F9
:10399C0010B92878FFF7E0FE204638BD013BEAE776
:1039AC006FF07704F8E76FF07304F5E700200E5022
:1039BC000C02002040420F0070B51E461546174AF7
:1039CC009DF81010131893F854300C3302EBC30409
:1039DC0042F833506660C6F313020401A1B104F13E
:1039EC00A04404F56224C4F82055C4F824250C4CDA
:1039FC0080000444236833B1FFF7DCFEA842B141D8
:103A0C0001D20023236070BD04F1A04303F56223AF
:103A1C00C3F82055C3F82425F5E700BF600000204B
:103A2C0000210E50F0B50E4D2B1893F854300001B8
:103A3C000C3355F8334005EBC3077E68641800F16E
:103A4C00A04021F0004146F1000641EAC27100F5A8
:103A5C00622045F833407E60C0F82815F0BD00BFE9
:103A6C0060000020F7B5284B284CD3F82C6304F1E8
:103A7C0088070EB903B0F0BD96FAA6F00123B0FA90
:103A8C0080F08340DA43224926EA0306231893F890
:103A9C005450830019440C2303FB0543DB6873B3B8
:103AAC00D7E8EF3F03EA020CC7E8EECFBEF1000FF8
:103ABC00F6D1C340DB0719D5020102F1A04202F591
:103ACC006222D2F82435D2F82025D1F800C0BCF1FE
:103ADC00000FCED04FF0000CC1F800C00C2101FB40
:103AEC00054529690091E9688847C2E705F10C038F
:103AFC0004EBC30C54F83320DCF80430E5E70A6817
:103B0C00002AB6D00B60B4E700200E5060000020F5
:103B1C0000210E50044B40EA0120C3F80005D3F8F5
:103B2C000024D207FBD5704700B004501FB50446E3
:103B3C00FDF7DEF9064B01220293002305491846D6
:103B4C00CDE9003302F0FFFF204603F00CF800BF74
:103B5C0077870000F47D00002DE9F041054686B022
:103B6C000E46EFF31188202383F31288BFF36F8F77
:103B7C000024042898BF234B234A98BF53F82030C5
:103B8C00976888BF214B127C2149CDE90432214B27
:103B9C0003900293012223462046CDE9004402F013
:103BAC00D2FF6EB1F369C3F308034BB11A4B012278
:103BBC00CDE90143204623461549009402F0C3FF8A
:103BCC002FB1384602F0F0FF08B1037803B913485F
:103BDC00134B012202930023CDE90370CDE900338E
:103BEC0018460B4902F0AFFF31462846FFF79EFFFF
:103BFC0088F31188BFF36F8F384606B0BDE8F041EB
:103C0C00FEF7A4B81C8000009006002086870000F8
:103C1C00F47D00009C870000C4870000948700009E
:103C2C00E587000038B50A4B53F82040013053F8B3
:103C3C002050A54200D838BD606830B1037EDB0748
:103C4C0001D402F05DFF0834F3E723689847FAE7E4
:103C5C0030800000012270B5294B86B003201A7009
:103C6C00FFF7E0FF03F0DDF80420FFF7DBFF254C46
:103C7C00254D2646AE4204F130040FD300F0E4FB90
:103C8C00204CAC4226D300F0F3FBFCF771FD1F4A2D
:103C9C00938923F00103938106B070BD54F80C3C5A
:103CAC00059354F8103C049354F8143C039354F8C3
:103CBC00183C029354F81C3C019354F8203C00939C
:103CCC0054E90A2354E90C0100F0E0F954F8303CB3
:103CDC005E65CEE7D4E90A23B3F1FF3F08BFB2F12A
:103CEC00FF3F05D052EA0301206803D102F0F5FF33
:103CFC003034C6E70649183000F0DEFDF8E700BFA7
:103D0C00410A0020687D0000687D0000B00300209F
:103D1C006F6C0000B82370B5144E86B003FB0066C0
:103D2C00134B012205930F23CDE903320023CDE978
:103D3C00013314234FF4A0720E4D0F4903FB0055B1
:103D4C00044602FB00110D4B3046009500F09EF925
:103D5C00337C2C7423F004033374094B013403EBD0
:103D6C00C423EE606B6006B070BD00BFF80200208B
:103D7C00478800009006002048120020836B00004A
:103D8C00480A00207FB50020FFF74CFF294B03F5B4
:103D9C00006282F3088883F30A880024E023264D0E
:103DAC0085F82230EC772C766C76AC7685F8204052
:103DBC006B6A43F4E0236B6285F82340FDF772FED7
:103DCC00FDF7AEFF4FF0FF33AB62EB62FEF7BAF9D3
:103DDC00FEF72EF8FDF764F8184800F0BDF9012045
:103DEC00FFF720FF0220164DFFF71CFF00F06AFBC7
:103DFC00144B4FF480625D61134B144905930123FE
:103E0C002846CDE90343CDE90144114B009400F061
:103E1C003DF906462B7C284623F004032B7402F054
:103E2C00FDFE2046FFF776FF31462846084AFDF78F
:103E3C0055FF00BF480A002000ED00E06804002098
:103E4C00B0030020900600204C880000881300204E
:103E5C00613C00002DE9F341044617461E46EFF382
:103E6C001188202383F31288BFF36F8F304BC26805
:103E7C009B6872B18068984217D057EA060216D137
:103E8C0088F31188BFF36F8F6FF00F0002B0BDE89D
:103E9C00F08193F90E1001322161C4E9023288F3EA
:103EAC001188BFF36F8F0020F0E72169F3E793F9D6
:103EBC000E1090F90E30994230DA9942A8BF19468B
:103ECC0002F064FE054622464146CDE900761948CB
:103EDC0000F02CFA0028E6D0EFF31186202383F3B0
:103EEC001288BFF36F8FA068D0B1236821699C4200
:103EFC000AD04BB193F90E309942A8BF19466FF016
:103F0C007F039942B8BF194602F040FE40B13146DA
:103F1C00084802F0B6FE6FF00A00B7E70025D2E7BA
:103F2C00002DF4D186F31188BFF36F8FF3E700BF38
:103F3C0090060020420A0020F8B583680546002B45
:103F4C0040D0234A926893423FD1C368012B03D9D6
:103F5C00013BC3600020F8BDEFF31187202383F3EE
:103F6C001288BFF36F8F0169806802F00FFE2C6816
:103F7C00A54207D10023C5E9023387F31188BFF3AB
:103F8C006F8FE7E7002CF5D0D4E9003200261360E0
:103F9C005A60237CC4E9006623F002032374A660F4
:103FAC0004F1180002F004FFAC6094F90E302046C6
:103FBC002B61C4F8B46002F031FE3946054802F0BA
:103FCC0060FEC7E76FF01500C5E74FF0FF30C2E7A2
:103FDC0090060020420A002070B5EFF311862023D2
:103FEC0083F31288BFF36F8F0468A0421BD0D4B147
:103FFC00D4E90032002513605A60237CC4E90055D3
:10400C0023F002032374A56004F1180002F0D0FE23
:10401C002046C4F8B45002F001FE3146BDE87040B1
:10402C00064802F02EBED0E902329A4218BF013384
:10403C00836086F31188BFF36F8F70BD420A002036
:10404C0013B5EFF31181202484F31288BFF36F8F23
:10405C00846844B1013C846081F31188BFF36F8F95
:10406C00002002B010BD52EA030406D181F311887E
:10407C00BFF36F8F6FF00F00F3E7CDE9002302461B
:10408C00014800F053F9ECE7420A00202DE9F04F0B
:10409C00984685B000F15803C0E91633129B0025F1
:1040AC0083810423D61D26F007060374119B01EBB4
:1040BC00060A0F46C0E90655514685608373C573E1
:1040CC000446DDF838B0DDF84C90FDF7F3F9109BA1
:1040DC00073020F00700C4E92776C4F8A400029347
:1040EC000F9BAAEB0006CDE900B332464346394696
:1040FC002046FDF7D7FD0F9BC4E91A8B2367109B55
:10410C0065656367EFF31183202282F31288BFF396
:10411C006F8F104F3A6A3C62A26783F31188BFF32A
:10412C006F8FB9F1000F11D01F22494604F17C00AA
:10413C0003F0E5F884F89B50BB680BB1D3F8A830BA
:10414C003046C4F8A83005B0BDE8F08F84F87C90F8
:10415C00F2E700BF90060020012303748381002343
:10416C00C0E92733C0F8A830014B9860704700BFF6
:10417C00900600206FF00A01094A9368C3F8B41046
:10418C000849C3F8B0004B6843F080534B600023E0
:10419C0083F31188BFF36F8F9368D3F8B400704723
:1041AC009006002000ED00E070B590F91020037C23
:1041BC00002A2FDBD9062DD11A4C63F07F0322463F
:1041CC00037452F8183FE169934207D1C0E900210A
:1041DC000860E0610FE09942F8D01B68002BF5D025
:1041EC0093F90E6090F90E50AE42F4DD5968C0E9B7
:1041FC00003108605860A569954200D005B9E568A2
:10420C00A3681A7CD20606D1DA897F2A03D9AA6957
:10421C000AB9636170BDAB4202D0284600F0B0FA17
:10422C006561F7E79006002038B590F9102001463B
:10423C00002A037C04DA03F07F03037402F0B6FC5B
:10424C000D4D2A4652F8184FAB68944200D004B971
:10425C00EC688B4207D01A7CD20604D1DA897F2A0B
:10426C0001D9A2692AB1A34202D0204600F088FAF3
:10427C0023466B6138BD00BF90060020B3F1FF3FB1
:10428C0008BFB2F1FF3F03D00249183000F014BB55
:10429C00704700BF6F6C0000034648B9EFF305820E
:1042AC0032B9064A51699268914201D0FFF762BF58
:1042BC0083F31188BFF36F8F704700BF9006002007
:1042CC0038B5184CA168E0690B68814214BF1A46D6
:1042DC00002249680B605960A368E1692AB9124A47
:1042EC00C3E900210B60E3610AE092F90E5093F9E7
:1042FC000E00854212DD5168C3E900210B6053604A
:10430C00A569094B9D4200D005B9E568A3689D429B
:10431C0002D0284600F034FA656138BD8A42DED0FE
:10432C001268DBE790060020A8060020F8B5DDE94E
:10433C0006670D4B0C46986811460C4A1060EFF35B
:10434C001182202282F31288BFF36F8F9D6828465A
:10435C0002F03EFC284632463B46FFF78FFF2046D4
:10436C00BDE8F840FFF706BF90060020B406002019
:10437C00F8B50446EFF31187202383F31288BFF3BB
:10438C006F8F037C49B203F01F02002A0CBF012679
:10439C00002635D103F07F032A4D037402F006FC8E
:1043AC002A46037C817363F07F03037452F8183F31
:1043BC00E869934207D1C4E900200460EC610DE088
:1043CC009842F8D01B68002BF5D093F90EC08C45A1
:1043DC00F6DD5968C4E900310C605C60AC6994424C
:1043EC0000D004B9EC68AB689C4202D0204600F0C7
:1043FC00C7F96C6187F31188BFF36F8F3046F8BD36
:10440C009B071CD5856802F0D1FB81732B689D42FC
:10441C0009D16B68C4E900531C606C60EAE76A68F8
:10442C009A42F6D01B68002BF3D093F90E208A42E7
:10443C00F5DD5A68C4E9003214605C60DAE7817318
:10444C00D8E700BF90060020EFF31181202383F3FF
:10445C001288BFF36F8F054B9A68D37B013BD373E4
:10446C0081F31188BFF36F8F704700BF9006002057
:10447C0070B5EFF31186202383F31288BFF36F8F8F
:10448C000F4DAB68DA7B0132DA732A4652F8184FBB
:10449C00944200D004B9EC681A7CD20604D1DA89B3
:1044AC007F2A01D9A2692AB19C4202D0204600F091
:1044BC0067F923466B613046BDE87040FFF7ECBEF0
:1044CC0090060020024B03F11802C3E90622704744
:1044DC009006002070B5EFF31186202383F3128829
:1044EC00BFF36F8F1A4CA168E0690B68814214BF4F
:1044FC001A46002249680B605960A368E1692AB921
:10450C00144AC3E900210B60E3610AE092F90E50F2
:10451C0093F90E00854216DD5168C3E900210B604A
:10452C005360A5690B4B9D4200D005B9E568A368A3
:10453C009D4202D0284600F023F965613046BDE863
:10454C007040FFF717BE8A42DAD01268D7E700BF77
:10455C0090060020A8060020F8B550EA0103064694
:10456C000C4603D1FFF7B6FF0020F8BDEFF311871F
:10457C00202383F31288BFF36F8F124D124BA86860
:10458C001860FFF751FEA868234632460F491830D1
:10459C0000F092F9AA680446137C384643F00403F1
:1045AC001374FFF7E7FDAB68D3E90A23B3F1004FAF
:1045BC0008BF002AD8D102F030FC201A20EAE070A3
:1045CC00D3E700BF90060020B40600206F6C0000FB
:1045DC00014B9868704700BF900600202DE9F84306
:1045EC0004468789EFF31186202383F31288BFF3E7
:1045FC006F8F037C190705D586F31188BFF36F8F76
:10460C00BDE8F883D90943F0080272D10274A3689B
:10461C0013B1204602F0D2FA04F1180002F0C8FBE4
:10462C00A56D04F15808A84511D04FF0000975B1DB
:10463C00284602F0C3FA05F1180002F0B9FB28462F
:10464C00C5F8B490FFF7B0FDA56DA845EFD1DFF824
:10465C00C480D8F808309C4253D1EFF30589B9F1E6
:10466C00000918BF4FF00109D8F818502A4A954292
:10467C0000D00DB9D8F80C50AB4202D0284600F04F
:10468C007FF82046C8F8145001F0D5FD204600F004
:10469C00C7F8B9F1000F02D02048FFF75DFDD8F83C
:1046AC0008309C4230D1EFF305836BBBA289D20753
:1046BC0011D586F31188BFF36F8F83F31188BFF385
:1046CC006F8F0423184602DFEFF31186202383F348
:1046DC001288BFF36F8F3046FFF74CFDFB078FD569
:1046EC00002383F31188BFF36F8F0423184602DF76
:1046FC0086E703F07F0343F00803037402F056FAD5
:10470C0085E74FF00009AFE786F31188BFF36F8F91
:10471C00E4E700BF90060020A806002068040020F3
:10472C00027C034612F01F0210D10A4988420DD0B8
:10473C000949086868B1D9897F2909D893F90E20ED
:10474C00064B1B689A42B8BF002070470020704788
:10475C0010467047F802002018020020B80600200E
:10476C000122044BC01A044BC0105843034B1A547B
:10477C00704700BF20050020ABAAAAAA420A00205D
:10478C0070B50C4B0C4D1E7CFFF7CAFF182303FBB6
:10479C0006550446284602F00BFB0022074B9A559F
:1047AC003CB1621E2846BDE870400549D31700F0A5
:1047BC0083B870BD9006002020050020420A00201E
:1047CC006D47000038B5EFF31185202383F3128871
:1047DC00BFF36F8F0F4B104A9C681068A04206D134
:1047EC00FFF7CEFF85F31188BFF36F8F38BD002123
:1047FC001B7C1160094AD35C002BF3D02046FFF7D9
:10480C008FFF0028EED0237CDB0601D1FFF758FD8B
:10481C002046E5E790060020B4060020420A00205E
:10482C00EFF31181202383F31288BFF36F8F0A4AB1
:10483C00136A834207D19B6F136281F31188BFF314
:10484C006F8F70471346002BF7D09A6F8242F9D1C5
:10485C00826F9A67F1E700BF90060020024B186840
:10486C00984208BF002070471C020020034B1B68B5
:10487C000BB9FEF799BA0020704700BFBC060020A8
:10488C0030B570B10B4B5B6898420AD0036843B1EA
:10489C00D3E90421D0E90445121941EB0501C3E920
:1048AC000421D0E9003213605A600023C0E90033C0
:1048BC0030BD00BF1C020020B3F1FF3F08BFB2F1B6
:1048CC00FF3F2DE9F84F0446994615461F467AD00E
:1048DC008160EFF31188202383F31288BFF36F8F6D
:1048EC00B9F1000FDFF8E4A020DBFFF7BFFFDAE936
:1048FC000027013549F100092D1849EBE0730646F4
:10490C004FF00109C4E90453AD1843EB0707FFF757
:10491C00A5FF0346DFF8B8E0DEF804A0EBB9C4E964
:10492C0000EACAF80040CEF8044028E06FF001031A
:10493C00DAE900125B1A4FF0FF3161EB02025B1BEC
:10494C0062EB0902012B72F10001BCBF01230022B2
:10495C004FF00009C0E90432D9E7D3E9041CD4E9CB
:10496C0004208A4270EB0C0B24DA891A5A686CEB1F
:10497C000000C3E90410C4E9003214605C60FFF766
:10498C006DFF84420ED1134B1B685BB9B9F1000F5C
:10499C0002D1FFF76BFF0646304602F0F2F9002118
:1049AC00FEF716FA88F31188BFF36F8F2846394645
:1049BC00BDE8F88F521A60EB0C005345C4E9042093
:1049CC00ADD01B68AAE700252F46EFE7380500207D
:1049DC001C020020BC0600202DE9F047DFF8A8904F
:1049EC000246C9F800000D46FFF738FF00260027E5
:1049FC00DFF898804FEAE27ED8E9001350B1D0E995
:104A0C00044CA2427EEB0C0A1ADAA41A6CEB0E06CA
:104A1C00C0E904460024521843EB0E032046C8E9B3
:104A2C000023C9F8004002F0ACF92146FEF7D0F99A
:104A3C0085F31188BFF36F8FBDE8F047FFF7C2BE57
:104A4C00611843EBE473C0E90467C8E90013FFF78E
:104A5C0017FF01224FF00043C0E9042385F31188AE
:104A6C00BFF36F8F83689847EFF31185202383F38F
:104A7C001288BFF36F8FD9F80020121BC9F80020E1
:104A8C00FFF7ECFEB6E700BFBC060020380500209F
:104A9C0010B5EFF31184202383F31288BFF36F8FCB
:104AAC00FFF7E4FE0346054AD2E90001181841EB72
:104ABC00E37184F31188BFF36F8F10BD38050020AC
:104ACC0038B50C4C0C4802F0DCF965780A4802F059
:104ADC00DEF90A4802F0D5F9022D08D12478E31F3B
:104AEC005C425C41054802F0D2F9204638BD0024F6
:104AFC00F8E700BFC0060020240200203C02002082
:104B0C0010B51B4C1B4802F0BCF92378590744BF65
:104B1C0003F0FB0323709A0705D500F0B1F8237856
:104B2C0023F002032370134802F0B1F9124802F08B
:104B3C00A8F9637813B1114802F0A1F900230421FC
:104B4C000E48637000F0B6F80B4802F0A0F9094863
:104B5C0002F097F92378DB0705D502F08DF923785D
:104B6C0023F0010323700348BDE8104002F08FB915
:104B7C00C00600203C02002024020020C4060020B5
:104B8C0070B5FFF79DFF10B10024204670BD34486E
:104B9C0002F077F9044620B16FF08F04FFF7B0FFF5
:104BAC00F3E7304D2B789E0706D400F061F80446ED
:104BBC002B7843F002032B70294802F068F910B1EE
:104BCC00002CE9D0EAE7002CE8D1254802F059F98D
:104BDC0004460028E0D12B78D80706D402F04AF915
:104BEC0004462B7843F001032B701D4802F04FF95B
:104BFC000028E5D1002CD1D1194802F042F9002847
:104C0C00CAD117482E7802F042F90028C4D11648B0
:104C1C0002F037F904460028BED16B783BB9F10796
:104C2C0005D5124802F029F9022304466B700E4890
:104C3C0002F02DF90028C3D1002CAFD1084802F0A6
:104C4C0020F90028A8D12B7805485A075CBF43F0FF
:104C5C0004032B7002F01BF9002895D09CE700BFD1
:104C6C003C020020C006002024020020C4060020C4
:104C7C000122024B002083F8C0227047C806002096
:104C8C002DE9F0410A4C002526464FF00108032778
:104C9C002046C4F820802777013502F0CEF8102D7D
:104CAC0004F12C04F4D1002386F8C032BDE8F08165
:104CBC00C806002010B50A46044619B1024B002163
:104CCC001B68984710BD00BF4880000010B50C4C05
:104CDC00206802F058FA0B4A1368591C11604BB942
:104CEC00094A4820D2F8003443F00703C2F80034D4
:104CFC00FCF770FF2068BDE8104002F04ABA00BF14
:104D0C00580200208C0900200080045038B5164D44
:104D1C00286802F038FA154B1C68013C1C60ECB991
:104D2C004820FCF765FF0722114BC3F80823D3F882
:104D3C00002422F00702C3F80024C3F80041D3F882
:104D4C000021C3F80441D3F804214FF48072C3F856
:104D5C000841D3F80831074BC3F888212868BDE80F
:104D6C00384002F016BA00BF580200208C0900200F
:104D7C000080045000E100E070B5104D104E2B681F
:104D8C00B34219D0FFF7A2FF00F08CFA00F0C8FA7A
:104D9C0038B102F07EF80446FFF7B8FF3CB92E603C
:104DAC0005E000F0D1F9044618B1FFF7AFFF20463B
:104DBC0070BD02F029F9EEE70024F8E75402002058
:104DCC00117365000022074BC3F81021C3F80C21A6
:104DDC00C3F80021C3F80421C3F80821C3F8142137
:104DEC00704700BF0050045008B5FFF7EBFF0123DC
:104DFC000360104B0A6832B9D3F80C211AB9D3F8F6
:104E0C000821002AF6D00B687BB90B4B99420ED0C7
:104E1C00A3F58473D3F80831002B14BF6FF0020094
:104E2C004FF0FF30FFF7CEFF08BD0020FAE74FF040
:104E3C00FF30F7E7005004500851045038B50546D0
:104E4C000C4691B10021012001F053FE084809499C
:104E5C00C0F80055C0F80445FFF7C6FF0021044612
:104E6C00084601F046FE204638BD6FF00104FAE713
:104E7C000050045000510450034B0449C3F8000582
:104E8C000348FFF7B1BF00BF005004500451045059
:104E9C000450045010B504460021012001F029FEF5
:104EAC00064B0749C3F800450648FFF79DFF002154
:104EBC000446084601F01DFE204610BD005004506B
:104ECC00085104500850045038B50C4659B1074DE0
:104EDC000749C5F800050748FFF786FF10B9D5F854
:104EEC000835236038BD6FF00100FBE7005004501B
:104EFC00105104500C5004502DE9F04F89B01C4651
:104F0C0007460D46164602F05CF80346002840F0B2
:104F1C00F8807A690090C2F3013161F305138DF8C2
:104F2C00003013F0300308D1B868800710D06FF050
:104F3C008608404609B0BDE8F08F102B08D1BDF8AB
:104F4C00023023F4F87343F4A873ADF8023053E045
:104F5C00D2B2F82A2ED100224FF0010B9046104607
:104F6C009446D7F808E0DFF8D09159F804AB1EEA64
:104F7C000A0F08D00BFA0CF242EA080202F07F0882
:104F8C00012240EA0A000CF1010CBCF1070FECD134
:104F9C002AB19DF8032068F347028DF803203EEAFE
:104FAC00000007D17A88FF2A0FD006D8802A35D086
:104FBC00C02A35D06FF08508BBE7B2F5807F31D0C1
:104FCC00B2F5C07FF6D1062200E003229DF8020064
:104FDC0062F306108DF8020013B91EF0030FA6D170
:104FEC003B79022B2BD01FD8012BA0D1BDF802206E
:104FFC0063F3C812ADF80220012938D0032923D05D
:10500C00002994D13B88B3F5105FD3D1182C03D071
:10501C00202C01D0102C8AD1484F2CE00122D5E74E
:10502C000222D3E70422D1E7032B02D0FF2B7FF41B
:10503C007EAF0222BDF8023062F3C81385E7BDF8DB
:10504C00023043F4C07380E7202C05D006D8102C16
:10505C0002D0182C7FF46BAF394F0CE024F02003F6
:10506C00412B01D0302CF5E70136013CF4E7302C14
:10507C007FF45DAF334F4FF000080F344FEA141933
:10508C0005EB080001F07BFF002852D008F1010865
:10509C00C145F5D11F2C2ED11C22002101A802F0F4
:1050AC0026F94FF0000B4FF0FF3A07EB0B124FEACB
:1050BC000B130692BBF1000F26D1009A0792BDF894
:1050CC0002203344C2F3C11205920DF1040C03F11A
:1050DC00100E624618685968083303C2734594462B
:1050EC00F7D101A905EB0B00FFF7A8FE804670B1C4
:1050FC0001F067FF05E04946284601F04AFF002809
:10510C00CAD06FF0920814E7CDF81CA0D7E71C2189
:10511C0001A80BF1010B02F05EF8D945C5D11F2C8B
:10512C003FF407AFBA20FFF7B5FE00283FF401AFFC
:10513C00E7E76FF08A08FCE64C80000040008151E4
:10514C00000000201084045010B590B01C220021E7
:10515C0001A802F0CCF8F82001F011FF00B32022D6
:10516C0000200DEB020100F08DF90446F0B94FF46C
:10517C008071104A104B01A8CDE901230F4BCDE9EA
:10518C0003130F4BF821069320230DEB0302FFF7BB
:10519C00B3FE202104460DEB010002F01CF805E0E3
:1051AC00F92001F0ECFE0028D9D10446204610B0BD
:1051BC0010BD00BF00240001014B4E800010C00444
:1051CC00F800FF7F10B50446FFF780FD104B186800
:1051DC0001F0D9FF0CB101232370BFF35F8F4FF0A7
:1051EC00A3430020D861BFF35F8FBFF35F8F4FF0F5
:1051FC00FF321A63BFF35F8FBFF35F8F3422DA6124
:10520C00BFF35F8F0122034BC3F8042310BD00BF13
:10521C005C0200200080045010B5044608B10378ED
:10522C0043B1FFF773FD044B186801F0B2FF0CB1EA
:10523C000023237010BD00BF5C02002038B5164C53
:10524C00D4F80051C5B1BFF35F8F4FF0A343996AF7
:10525C00BFF35F8FBFF35F8F4FF0FF321A63BFF363
:10526C005F8F0023C4F80031D4F800310B4B186861
:10527C00BDE8384001F0A0BFD4F8083153B100F0BC
:10528C0069F801F0D8FEC4F80851D4F808310121AE
:10529C00034BECE738BD00BF0080045064020020D3
:1052AC006002002008B5074B186801F074FF064B2C
:1052BC00186801F070FFBDE8084000224820114634
:1052CC00FCF7B8BC640200206002002038B5094B22
:1052DC001C7864B1084B4FF0FF311D68284601F073
:1052EC005CFF4FF0FF310446284601F063FF204677
:1052FC0038BD00BF410A00206402002010B5064CE6
:10530C00E36C3BB9214651F84C3B986901F097FE90
:10531C000123E364014810BD90090020DC09002042
:10532C0010B50A4B0A4C236003F5C043636024613B
:10533C00FFF7E4FF236D0020B3F5007FCCBF4FF4E3
:10534C0080634FF40073A36010BD00BF0020805138
:10535C0090090020004870479009002000212DE999
:10536C00F043064695B00846FFF72CFF0DF12705D4
:10537C00044625F01F0520B115B0BDE8F04301F03F
:10538C0088BD4FF01009DFF88080012210211F48E2
:10539C0001F0EBFD1D4A2B19009320211023CDF8B1
:1053AC000490A2F1200000F00DF9074650B1002046
:1053BC00FFF732FF384601F06CFD0746384615B052
:1053CC00BDE8F083D8E90C321034013342F100020D
:1053DC00302CC8E90C32D8D1FFF71EFF26B122467B
:1053EC003146284601F0B4FD2E46074C0FCE0FC4B3
:1053FC0096E80F00203584E80F0095E80F00103474
:10540C0084E80F00DAE700BF4005002060050020AB
:10541C00F0B5194D194FAB6B8DB0BB4229D0184E5E
:10542C00306801F0B0FE402300221946284601F0F6
:10543C00C7FE3021684601F028FE044678B968465C
:10544C00FFF78CFF044690B9302302461946684694
:10545C0001F0B6FE01220023C5E90C23AF633068CE
:10546C0001F097FE204601F014FD0DB0F0BD0E24A6
:10547C00F5E70020F9E700BF40050020B4A5B4A56E
:10548C00680200202DE9F04F99B00DF1570902F197
:10549C000F0A04468846154629F01F094FEA1A1AC6
:1054AC0032B1002900F08580B2F5803F00F2818096
:1054BC00414F424E386801F066FED6E90C32134378
:1054CC0008D12046FFF7A4FF044618B1386801F054
:1054DC0060FE5AE0D6E90C231AEB020243F10003FA
:1054EC00B3F5803F14D3302102A801F0CEFDF8B9FA
:1054FC0002A8FFF733FF04460028E7D13023024609
:10550C00194602A801F05CFE00220023C6E90C2318
:10551C0000210846FFF756FE044660B910249DB9D9
:10552C002846FFF779FE2846FFF718FF0446CDE71B
:10553C006FF09204CAE7386801F02BFE204619B0D0
:10554C00BDE8F04F01F0A5BC102D4FF001024FF05B
:10555C0010011B48AB4628BF4FF0100B01F005FDA6
:10556C00174A10232021CDE90094A2F1200000F06D
:10557C0029F8824668B10020FFF74EFE386801F02A
:10558C0008FE504601F085FC0446204619B0BDE8E3
:10559C00F08F5A464046494601F09CFED6E90C3243
:1055AC00013342F10002C6E90C32A5EB0B05D844DD
:1055BC00B5E76FF08604E8E768020020400500209C
:1055CC006005002037B54FF480740194214C41F0F4
:1055DC000051A16140F6110143F00053A362212355
:1055EC00E16104F12001616101212262E362069A0A
:1055FC00194B01AD1A60079A256042F00052112533
:10560C00C3E901122022DFF854C02061C4E902C5AD
:10561C0004F1100565606162DA60BFF35F8F4FF0D3
:10562C00A3421460BFF35F8FBFF35F8F1361BFF3AF
:10563C005F8FBFF35F8F03235363BFF35F8FBFF3A2
:10564C005F8F9363BFF35F8F01F06CFD431CFBD046
:10565C0003B030BD0C0A0020FC090020040000201F
:10566C00BFF35F8F094A1368BFF35F8F43F48071F8
:10567C00BFF35F8F1160BFF35F8F23F48073BFF3B1
:10568C005F8F1360BFF35F8F704700BF00108051B6
:10569C0008B5FFF7E5FFBFF35F8F064A1368BFF34A
:1056AC005F8F43F00103BFF35F8F1360BFF35F8F16
:1056BC0008BD00BF0010805170B50026C0E900661F
:1056CC0005460C46FFF702FB01232B70FFF7C8FFC2
:1056DC00BFF35F8F204BDB68BFF35F8F9B08013BF1
:1056EC00ACB3226842B19A4205D9FFF70FFB6FF0B9
:1056FC003F002E7070BD1346D4E90115E0680029F7
:10570C0008BF4FF40071002808BFF1202469BFF3D3
:10571C005F8F114A9360BFF35F8FBFF35F8F156488
:10572C00BFF35F8FBFF35F8F5064BFF35F8FBFF327
:10573C005F8F5163BFF35F8F44F4802444F0010406
:10574C00BFF35F8F1460BFF35F8F0020D2E74FF47D
:10575C000071F1202546DAE70010805170B503780E
:10576C000D461446002B52D0BFF35F8F2C4A136B9F
:10577C00BFF35F8F03F00E010A294BD013F00C0F0F
:10578C0002D14FF0FF3070BD4368D3B9BFF35F8FC8
:10579C005368BFF35F8F032BF3D9224B2249BFF31E
:1057AC005F8FD2F88060BFF35F8FBFF35F8F43F8DA
:1057BC00046BBFF35F8F8B42F1D1FFF769FF0123BD
:1057CC004360BFF35F8F164B9A68BFF35F8F013254
:1057DC00B4EB021F21D8BFF35F8F5A68BFF35F8F02
:1057EC00B4EB820FCDD884B1BFF35F8FD3F8802098
:1057FC00BFF35F8F291D05F8012BA9424FEA122236
:10580C0004F1FF34EFD0002CF5D10020BBE76FF092
:10581C002000B8E76FF05100B5E76FF03F00B2E73A
:10582C0000108051101080512010805173B5044627
:10583C00EFF31186202383F31288BFF36F8F8368F5
:10584C00594003EA02050A405340002200930949DB
:10585C006B46019201F061FADDE9003223EA0203A2
:10586C0004F10C003146A36001F00BFA284602B09B
:10587C0070BD00BF817200002DE9F04F43688BB002
:10588C0080469246009383789C0740F1F98000256E
:10589C000878002800F0F68025280AD04B1C0193CC
:1058AC0001354146009B98470028C0F2E3800199DE
:1058BC00EEE74E788B1C252E0193F1D000270A229F
:1058CC00B9463C461F2C22D8A6F12003102B20D819
:1058DC00DFE803F0141F1F1A1F1F1F0B1F1F1F12BF
:1058EC001F171F1F090044F00104019B13F8016BE3
:1058FC000193002EE6D13AE044F0020444F0040493
:10590C00F3E744F00804F0E744F01004EDE77F2CD3
:10591C0024D8A6F13003092B08D860064EBF02FB31
:10592C00073744F0200402FB0939DEE72A2E0DD19B
:10593C0061065AF8043B53D4002BA7BF44F0200453
:10594C009946C3F1000944F02804CEE72E2E05D168
:10595C00630600F1978044F04004C6E76C2E2ED00D
:10596C0028D8682E32D06A2E37D04C2E35D0002F46
:10597C0046F02003B8BF24F04004A3F16502BCBF7D
:10598C000027A4B2022A01D9612B2BD10AF1070AF4
:10599C0007279D4E2AF0070A0AF1080A210760D54D
:1059AC0006EB070B34465C455DD1AE1BA9EB070932
:1059BC00A21959E1742E98D07A2E96D0D7E72606E4
:1059CC0048BF44F4007444F080048EE7E00548BFFF
:1059DC0044F4007444F4807487E744F4207484E73E
:1059EC001F4682E7A6F16302122A00F2D880DFE894
:1059FC0012F013004D00D600D600D600D6004D0094
:105A0C00D600D600D600D600D600E800D100D600CD
:105A1C00D6001A00D600A0005AF8043B012704AEA9
:105A2C008DF81030BAE75AF8046B784B002E08BF8B
:105A3C001E4614F0400F304614BF39464FF0FF316C
:105A4C0001F070FC0746A9E741462020009B9847CF
:105A5C0000280FDB013CA742F6D34D44A1462D1B79
:105A6C009EE74C46F7E7414614F8010B009B98471C
:105A7C00002898DA98F8023043F0040388F80230D2
:105A8C004FF0FF3528460BB0BDE8F08F220630D51D
:105A9C00A3052AD50AF1070A2AF007039A46596882
:105AAC005AF8080B24F0100B00291FFA8BFB2FDA85
:105ABC0040424BF4806B61EB410104AC0A2322465B
:105ACC0001F03CFC1BF0400FA0EB040200F08E80B8
:105ADC002BF001049742A4B240F38F80002E40F0CB
:105AEC008E802BF01104A4B21DE05AF8040BC117E0
:105AFC00D8E7E0055AF8041B01D40846F7E7A205DD
:105B0C0047BF48B241F3C01108B241F3C031C9E7F5
:105B1C0050EA0103D1D16306CFD5002FCDD124F0AB
:105B2C0011043A46A4B23B4640F206410C4262D103
:105B3C0024E024F010040A23A4B214F0800243D011
:105B4C0014F4007117BF0AF1070A5AF8040B2AF073
:105B5C00070292461CBF51685AF8080B50EA010222
:105B6C003ED124F0160B62061FFA8BFB3CD5002F9E
:105B7C003AD124F017043A463B46A4B221075AD432
:105B8C00E10705D5994572DDA9EB03039F184B4638
:105B9C009B464AE044F0100410237826CDE7782B7E
:105BAC0004D1C6F1780343F01003C6E74146252023
:105BBC00009B98470028FFF65DAF02354146304602
:105BCC0070E608230026B8E714F480715AF8040B29
:105BDC00C4D014F400711ABFC0B2114680B2BDE734
:105BEC0024F006041FFA84FB04AC68E713465C46F9
:105BFC00E10699D52EB90133C0E71346F8E73B46C9
:105C0C00F6E70233BAE700BF628800005B88000049
:105C1C00CDE9023241462020009B98470028FFF630
:105C2C0029AF0BF1010BDDE90232D945F0DCEB1A9F
:105C3C0003EB0B055B46E10627D541463020CDE949
:105C4C000232009B98470028FFF614AFDDE90232C0
:105C5C007EB901352F44791B8A4229DB144604AEE8
:105C6C0094BB2A44A9EB03091546914440E017461E
:105C7C008EE7023541463046CDE90232009B98470B
:105C8C000028DDE90232E5DAF4E640F206410C4286
:105C9C00E0D014F0020F05F10105414614BF2B2092
:105CAC00202014F4806FCDE9023218BF2D20E5E7D7
:105CBC00CDE902324146009B30200135984700283F
:105CCC00DDE90232C7DAD5E6013C4146CDE90232C4
:105CDC00305D009B98470028DDE90232C0DAC9E646
:105CEC0041462020009B013598470028FFF6C2AEA4
:105CFC00A9EB0503002BF3DCD9E500BF704700EBE3
:105D0C00C100408840087047F8B50346FFF7F7FF1D
:105D1C00B0FA80F0C0F11F0003EB800CDCF81060CF
:105D2C00CA00171D0C4606328DB256B9012101FA74
:105D3C0000F0D9680143D960CCF81040DD539D5276
:105D4C00F8BDF1000431585AD85303EBC0009E52F1
:105D5C00C5805D52F4E7043A2DE9F843CC1D11449B
:105D6C0024F0070421F00706A6EB04084FEAD80735
:105D7C00B7FA87F24FF00009C2F12405AD000735E0
:105D8C00C2F12002ED0804604946A760C4F80C90EB
:105D9C00920004F1100001F0AAFAAAB2530043F0E9
:105DAC00010363807B1B9BB204EBC5015800A4F874
:105DBC000090488024F83520A6F8029024F808308A
:105DCC0004EBC7035A88294642F001025A80204648
:105DDC00BDE8F843FFF798BF2DE9F04706460D469E
:105DEC00174698462BB34FF0000A98F8004093F8EA
:105DFC000190DB78A40004EB430498F802301C44B7
:105E0C004444CA4509D339463046AC46D8F8042038
:105E1C0008F10803BDE8F047604714F8013B0AF1AC
:105E2C00010A204648F82340FAF73CFB01300444B1
:105E3C00E7E76FF01500BDE8F087002070470FB45E
:105E4C0007B504A951F8040B019100F0E5F803B073
:105E5C005DF804EB04B07047038B13F0070306D115
:105E6C000368002B18BF032008BF00207047022BCB
:105E7C0005D1408BB0FA80F0400980007047012BAF
:105E8C0004D10368002B18BF0520EDE700207047F4
:105E9C0010B50C4600B111B96FF0150010BD081DFE
:105EAC0000F087F80028F9D1A368032BF6D9F3E7A3
:105EBC002DE9F0410D4607461946281D90461E4611
:105ECC0000F088F8044638B1334642462946384635
