:1000000080170020B1100000CB5600009D100000AA
:100010009D1000009D1000009D1000009D1000002C
:100020000000000000000000000000008911000036
:100030009D10000000000000511300009D10000002
:10004000D9130000D9130000D9130000D913000000
:10005000D9130000D9130000D9130000D9130000F0
:10006000D9130000D9130000D9130000D9130000E0
:10007000D9130000D9130000D9130000D9130000D0
:10047C0053B94AB9002908BF00281CBF4FF0FF31FF
:10048C004FF0FF3000F00CB8ADF1080C6DE904CE64
:10049C0000F008F8DDF804E0DDE9022304B0704751
:1004AC00704700BF2DE9F0478C468E46089E1546D6
:1004BC0004461946002B40F0D080724547D9B2FA59
:1004CC0082F74FB1C7F120030EFA07FCBD40BC40C8
:1004DC0020FA03F343EA0C0C4FEA154EA8B2230C96
:1004EC00BCFBFEF80EFB18CC08FB00F943EA0C43EE
:1004FC00994528D9EB1808F1FF3204D2994502D955
:10050C00A8F102022B44A3EB0903A4B2B3FBFEFC3B
:10051C000EFB1C330CFB00F044EA0344A04214D93C
:10052C002C190CF1FF3304D2A04202D9ACF1020316
:10053C002C44241A43EA02401EB1FC4000233460D0
:10054C007360BDE8F0874246DDE76346F1E7002AB9
:10055C0079D0B2FA82F3002B3FD01946C1F12003B7
:10056C0002FA01F500FA01F42EFA03F20EFA01FE7A
:10057C0020FA03F3AFB243EA0E034FEA154EB2FB77
:10058C00FEFC0EFB1C201A0C0CFB07F842EA004286
:10059C0090455AD9AA180CF1FF3004D2904502D9D3
:1005AC00ACF102002A44A2EB08029BB2B2FBFEFCA7
:1005BC000EFB1C220CFB07F743EA02439F4246D971
:1005CC00EB180CF1FF3204D29F4202D9ACF10202BB
:1005DC002B44DB1B42EA004202E0AEEB0203012299
:1005EC004FEA154EAFB2200CB3FBFEFC0EFB1C33D6
:1005FC000CFB07F840EA034398452AD9EB180CF199
:10060C00FF3004D2984502D9ACF102002B44A3EB85
:10061C000803A4B2B3FBFEFC0EFB1C330CFB07F768
:10062C0044EA0344A74216D92C190CF1FF3304D227
:10063C00A74202D9ACF102032C44E41B43EA00406C
:10064C000F46114678E71F2188E76046ABE7624604
:10065C00BFE76046DBE76346EFE7734506D916B99B
:10066C00002108466DE7C6E9000EF9E7B3FA83F7F7
:10067C0087B9734501D3824207D8841A6EEB030302
:10068C0001209C461EB900215BE73846FAE7C6E913
:10069C00004CF8E7C7F1200CBB4000FA07F422FA33
:1006AC000CF520FA0CF1BA401D432EFA0CF30EFA9D
:1006BC0007FE4FEA154941EA0E011FFA85FEB3FB0E
:1006CC00F9F809FB18300B0C08FB0EFA43EA00434F
:1006DC009A4540D9EB1808F1FF3004D29A4502D95B
:1006EC00A8F102002B44A3EB0A0389B2B3FBF9F87F
:1006FC0009FB183308FB0EFE41EA03418E452CD949
:10070C00691808F1FF3304D28E4502D9A8F102030F
:10071C00294443EA0040A1EB0E01A0FB029841459D
:10072C00CE46434602D306D14C4504D20138B9EB30
:10073C00020E68EB0503002EA5D0B4EB0E0261EBA4
:10074C00030101FA0CFC22FA07F3F9404CEA03030B
:10075C00C6E9003197E74046C5E74346D9E70000B4
:10076C0037B5044601A805F0D4F80546B8B9019B85
:10077C001C4214D0A10605D50A4804F0ABFB284650
:10078C0003B030BD220501D50748F6E7230601D595
:10079C000648F2E72146064804F08AFBEFE76FF0C3
:1007AC008505ECE72C7400003F7400005F740000BA
:1007BC007F7400002DE9F3412C4E304605F00EFC01
:1007CC0020B931682A4804F073FB0EE029492A4805
:1007DC0004F06EFB01A801F023FC0198FFF7C0FFA9
:1007EC00044630B1254804F075FB002002B0BDE88A
:1007FC00F081234804F06EFB224D0D212F69D5F8B2
:10080C0008803B68284643F400533B60D8F800301E
:10081C001D4A9847011E01DA1C48D4E7D8F8188005
:10082C00B8F1000F10D03B680D2113F4005F14BF1A
:10083C004FF000734FF080634FF480022846C0479E
:10084C00011E04DA1248BEE76FF05701FAE71148AF
:10085C0004F040FB2146304600F058F9011E01DA45
:10086C000D48B0E701F014FC04F013FE6C690000B5
:10087C009C740000B3740000BE740000D3740000BC
:10088C00EE7400002C690000110001000A750000D4
:10089C002D7500005A75000084750000014B1B6813
:1008AC00184700BFF0000020014B1860704700BFD4
:1008BC00F000002030B5044685B00D461022002112
:1008CC00684605F05BFF02238DF80230044B2A4684
:1008DC0021466846019304F01DFB05B030BD00BFF6
:1008EC00A908000080B505460E461746984603F049
:1008FC008BF9034600F07CFD0446DFF81890424665
:10090C0049F8003039463046A84754F8090000F041
:10091C0003FD00BF080000002DE9F047058B0446DD
:10092C00280717460CD501290CBF45F0100545F0DA
:10093C002005258387F31188BFF36F8FBDE8F087FF
:10094C00022905F0070540F09480204604F0ABFD29
:10095C00052864D801A353F820F000BF410900001A
:10096C007F0A00002B0A0000ED090000070A0000B6
:10097C00190A000001F007035A1F012A1FD8002290
:10098C0021F00701062BD4F8008089B2C4E90022BB
:10099C0009D1434603E0628B013262831B68002B52
:1009AC00F9D141F002012046218304F07CFD4FF087
:1009BC00000900286DD041F02001218369E0042B4F
:1009CC000AD121F0070189B22046218304F06BFD86
:1009DC0010B141F0200121834FF00008C14658E0CE
:1009EC002369D3F80090238B23F0070343F006030D
:1009FC004FF00008238346464BE02369D3F804905C
:100A0C00238B23F0070343F00403F1E72369D3F8A6
:100A1C000890238B23F0070343F00503E8E74FF01E
:100A2C000008C146E7E7012243F00803238387F35C
:100A3C001188BFF36F8F002A3BD1B8F1000F4AD158
:100A4C00B9F1000F02D020462C49C847EFF31187AB
:100A5C00202383F31288BFF36F8F238B23F00803BB
:100A6C009BB22383D9063FD523F01002228303F0D7
:100A7C0007056669218B002EBFF67CAF00239946D3
:100A8C00D4F8008021F00701C4E9003341F00101E2
:100A9C002183238B03F0070AAA4502D0A268002AFF
:100AAC00C1D1B8F1000F02D1B9F1000FDAD0002298
:100ABC00BAE7A1680029C0D00D680029BDD0334623
:100ACC00524620464F68B8471DB12B6829461D4633
:100ADC00F3E72B46FAE74146334652462046D8F810
:100AEC00008004F00CFDA8E79A067FF523AF23F0F5
:100AFC002002228303F0070527E700BF37550000CB
:100B0C00014B036000207047C872000070B5C469C7
:100B1C000D469CB31E4A2379565CB34231D01D4A14
:100B2C00525C9A4230D1A3689847002810DA022D03
:100B3C000CD0032D0BD110F1860F07D0D4E8EF3F6A
:100B4C0043F00203C4E8E23F002AF6E7267170BDC9
:100B5C00022D267101D00020F9E7D4E8EF3F23F0F5
:100B6C000403C4E8E23F002AF7D1D4E8EF3F23F0B6
:100B7C000203C4E8E23F002AEDD0F6E76FF057001D
:100B8C00E5E76FF07700E2E76FF08500DFE700BF85
:100B9C00A47A0000A07A000008B5044804F06CFCAC
:100BAC00034804F069FC002008BD00BFA4750000D8
:100BBC00D975000008B50348034A0021121A04F045
:100BCC0076FD08BD000300203C0A0020074808B54C
:100BDC00074A0849121A04F06CFDBDE808400648A3
:100BEC00064A0749121A04F064BD00BF60000020D9
:100BFC0000030020C47A0000600000206000002088
:100C0C00C47A000038B505460C4699B1D1E90123E8
:100C1C000F48096804F030FCD4E90423E1680D485E
:100C2C0004F02AFCE1690C4804F026FCA1690B488D
:100C3C0004F022FC012D05D1EFF305810848103991
:100C4C0004F01AFC21462846BDE8384002F0F0BA00
:100C5C000676000036760000667600007676000098
:100C6C00A576000030BFFFF7FDBF00BF2DE9F041B6
:100C7C0005460B4EDFF82C80324606EB0807CC1BE2
:100C8C002046094905F06DFDA01942460021083C9B
:100C9C0005F074FDC5F8AC4007F10800BDE8F08123
:100CAC0000000000040000009472000010B5204CFD
:100CBC00204804F0E1FBA36A990137D51E4804F0E3
:100CCC00DBFB1E20A36ADA0103D51C4804F0D4FB1D
:100CDC001F20174CA36ADB0203D5194804F0CCFB88
:100CEC000220A36A1C0303D5164804F0C5FB21207F
:100CFC000F4CA36A590303D5134804F0BDFB222003
:100D0C00A36A9A0303D5114804F0B6FB2320084CC0
:100D1C00A36ADB0303D50E4804F0AEFB2420A36AC0
:100D2C006FEA03436FEA1343A36210BD1D20C9E7AA
:100D3C0000ED00E0B9760000D2760000E676000007
:100D4C00017700002C7700004B77000071770000D2
:100D5C008C77000070B5244C064624480D4604F0F0
:100D6C008BFBA36AD90435D5214804F085FB1720E9
:100D7C00A36A1A0503D51F4804F07EFB18201A4CF1
:100D8C00A36A9B050FD51C4804F076FBA16BA36AE4
:100D9C00180407D5194804F06FFB1EB1A36A23F49D
:100DAC000043A3621920104CA36A590503D51448BB
:100DBC0004F062FB1A20A36ADA050DD5114804F081
:100DCC005BFB1B20084A936A43F47F439362002326
:100DDC002B7070BD1620CBE7A36A9B04F2D50A4892
:100DEC0004F04AFB1C20EDE700ED00E0B8770000B2
:100DFC00CF770000E1770000F57700000F78000056
:100E0C0025780000417800005A78000070B5264C17
:100E1C00064626480D4604F02FFBA36AD80640D59B
:100E2C00234804F029FB1120A36A190703D5214894
:100E3C0004F022FB12201C4CA36A9A070FD51E4803
:100E4C0004F01AFB616BA36A1B0607D51B4804F060
:100E5C0013FB1EB1A36A23F08003A3621320124C70
:100E6C00A36ADE0703D5164804F006FB1420A36A18
:100E7C009C0603D5134804F0FFFA15200A4B9A6A16
:100E8C00D10658BF9A6A9A6A920642BF5A6A22F4ED
:100E9C0000525A629A6A42F0FF029A6200232B7047
:100EAC0070BD1020C0E700BF00ED00E08A780000A4
:100EBC00A1780000E1770000D5780000EE78000002
:100ECC00057900005A7800002DE9F0415D4B04468D
:100EDC005F6800258AB0C7F3080685F31188BFF355
:100EEC006F8F02F07F43B3F17F4F06D102F00C03FA
:100EFC00082B13D1544804F0BFFA00252C464FF0B0
:100F0C000008F31E8DF80780092B00F28B80DFE8B8
:100F1C0003F00A7F837B89898989898710074CBFF5
:100F2C000C460125EBE74948464E04F0A5FA8DF82E
:100F3C000780F36A9A0704D5454804F09DFA00230C
:100F4C002AE0F36A002B01DA4248F6E7F36A5B0009
:100F5C00F5D5414804F090FA7369A26943F48073A3
:100F6C007361BFF34F8FBFF36F8F32F8023C72691E
:100F7C0022F480727261BFF34F8FBFF36F8F03F453
:100F8C007F42B2F55F4F27D1DBB2022B24D121680F
:100F9C00324804F071FA23689DF80720CAB902AEF2
:100FAC0004F12007324620686168083403C2BC4251
:100FBC001646F7D1099A002D40D0C2F3080121B989
:100FCC006FEA52226FEA42220992184602A9FFF7F1
:100FDC0019FE0AB0BDE8F0811A4B9A6AD2B22AB156
:100FEC0001200DF10701FFF711FF0FE09A6A12F4CF
:100FFC007F4F05D001200DF10701FFF7ABFE05E097
:10100C009B6AB3F5803F9AD3FFF750FE0346C3E7C4
:10101C0000200DF10701E6E700200DF10701ECE7D8
:10102C000F488AE70F4B17F4F87F0F490F4808BF9A
:10103C001946A6F1100204F01FFA80E76FF30802BC
:10104C00C2E700BF00ED00E0537900007F7900009B
:10105C0097790000B9790000C8790000E8790000A0
:10106C00057A0000257900003A7900002A7A000000
:10107C00064B5A6942F010025A615A6942F4806276
:10108C005A615A6922F008025A61704700ED00E07B
:10109C00EFF30880EFF3098101B57246FFF714FFF7
:1010AC0001BD00BF002080F31488BFF36F8F0020B8
:1010BC0080F30A8880F30B88104880F3088800209E
:1010CC000F49087001F05CFA00200E490860BFF36C
:1010DC004F8F00F02DF8202080F311880A484FF430
:1010EC000061401880F30988EFF314800221084353
:1010FC0080F31488BFF36F8F00F0A6F880170020E0
:10110C00370A002094ED00E0400A00200023184626
:10111C000649D1F89020C2F30722934200DB7047B6
:10112C00C1F89830C1F8A0000133F6E700ED00E0FB
:10113C0010B572B6002484F31388FFF7E7FF23463B
:10114C004FF0FF300C4A03F120010133102B42F811
:10115C002100F8D100234FF0FF30074A03F1600162
:10116C000133102B42F82100F8D162B6BFF34F8F38
:10117C00BFF36F8F10BD00BF00E100E01EF0040F45
:10118C000CBFEFF30880EFF30980816911F8021CA2
:10119C000229FFD001B5724604F08DFA01BD00BFE3
:1011AC0000B2002807DB01234109034A00F01F00AD
:1011BC00834042F82130704700E100E000B2002883
:1011CC000CDB01220649430900F01F00824020334A
:1011DC0041F82320BFF34F8FBFF36F8F704700BFD1
:1011EC0000E100E0054B420953F82220012300F0F6
:1011FC001F0003FA00F01040704700BF00E100E050
:10120C0000B2002801F10101ACBF00F16040064BB7
:10121C004FEA4111C9B2ABBF00F5614000F00F00BD
:10122C0080F800131954704714ED00E0044B054A84
:10123C0023F07F039360BFF34F8FBFF36F8F704723
:10124C000000000000ED00E008B5FFF7EFFF074AD3
:10125C00D2F8883023F47003C2F88830FFF7AAFC68
:10126C00FFF7B4FC00F0A2F802F0AAF800ED00E0E1
:10127C0042F8203C009B0B4942F81C3C019B21F09E
:10128C00010142F8183C029B42F8081C42F8143C3D
:10129C004FF0807342F8043C0023203A0265C0F8FA
:1012AC00B0307047F108000000B50E4B1546986041
:1012BC00D0F8AC200C4B0E461A60D0F89C3083F35F
:1012CC000B882C4686F309880020044B984720464F
:1012DC00002100220023024C20470000F1560000A0
:1012EC00F108000088060020B00500201022014BF8
:1012FC001A61704700ED00E0054B5A699B689A42F1
:10130C001FBF044A536843F080535360704700BFBB
:10131C008806002000ED00E0084B9B6883420BD14F
:10132C00EFF3058343B1064B5A6842F080525A6082
:10133C005A6A22F400425A6202F06CBC8806002001
:10134C0000ED00E016498A684FF030001044EFF3CE
:10135C00098C80E8F01F202080F31288BFF36F8F78
:10136C00104F4FF000664A698A603E60D2F8AC00BC
:10137C000D4C2060D2F8B0000023C2F8B03080F3DE
:10138C00118802F1300090E8F01F8CF3098802F10B
:10139C00000004B504F09EF9BDE80440704700005D
:1013AC008806002004ED00E0B0050020002320207A
:1013BC0040F20F1210B5044CE1180133934281F83E
:1013CC000003F9D110BD00BF00E100E008B5EFF358
:1013DC000583064A103B02EBC30152F833004968FF
:1013EC008847BDE80840FFF787BF00BF8C69000045
:1013FC000148006870470000B00500201FB50121AE
:10140C00094B0A4A0A4800F0F7F80023064A0393EE
:10141C00084B0121019301A8D31A029300F0F6F8AE
:10142C0005B05DF804FB00BF00E0022000000020C6
:10143C00C8720000000300200A7A0B6810B562F332
:10144C0004031C46CB68520923F01F0343EA4203F2
:10145C00044A43F00103C2F89800C2F89C40C2F859
:10146C00A03010BD00ED00E010B5074BD3F8903064
:10147C00C3F30723013B984202D8FFF7DDFF10BDF1
:10148C006FF01500FBE700BF00ED00E02DE9F04F19
:10149C000F46144606464FF000084B4D85B0B84534
:1014AC0080F28E80D6F80490B9F1000F35D0B9F1E6
:1014BC001F0F40F2838019F01F0F7FD1D6F800A0C8
:1014CC001AF01F0F7AD1504604F02FF9834609EB1E
:1014DC000A00013804F029F983456FD11BF1160F6E
:1014EC006CD05C456ADDC5F898B0D5F89C10C5F891
:1014FC0098B0D5F8A03021F01F0143F01F0AD6E9AF
:10150C0000321A44994202F1FF391BD1CA4508D165
:10151C0031465FFA8BF004F011F908F101080C3632
:10152C00BDE73146C5F898B0D5F89C30E0B263F30E
:10153C000402C5F89C2004F001F910F1160F3DD0FF
:10154C00441CEAE7C5F898B0D5F8A020013B23F07D
:10155C001F0302F01F021343CA453146E0B2C5F81F
:10156C00A030E8D004F0EAF810F1160F26D0C5F838
:10157C0098B0D5F89C209DF808300AF1FF3A62F338
:10158C0004038DF80830D5F8A0309DF808205B08CE
:10159C0063F347128DF80820D6E900321344009308
:1015AC0023F01F035344A3EB0903013023F01F0363
:1015BC006946C0B20393FFF757FFBEE76FF01504FF
:1015CC00204605B0BDE8F08F00ED00E00522044B8D
:1015DC00C3F89420BFF34F8FBFF36F8F704700BFDA
:1015EC0000ED00E0BFF35F8F0022024BC3F89420A4
:1015FC00704700BF00ED00E010B5034C2278FFF7F8
:10160C0045FF207010BD00BF340A00202DE9F74FB4
:10161C00294D8A4606464FF00008AB46274FD04569
:10162C001BDAD6F80490B9F1000F3FD031680846A8
:10163C00019104F07AF80199044609EB0100013894
:10164C0004F073F884424FF014021D4B08D002FBD7
:10165C0008F36FF015024BF8032003B0BDE8F08FD0
:10166C0014F1160F2C60F8D01978A142F5DD02FBAD
:10167C0008B0C7F89840C7F89840D7F89C4000F1DC
:10168C000801007B64F304000871D7F8A0000C7902
:10169C00400860F347140C71D7F89C1021F01F011F
:1016AC006960D7F8A01021F01F01296108F1010829
:1016BC0014350C36B3E700BFB405002000ED00E094
:1016CC00340A0020F0B55349534DD1F890302C68B2
:1016DC00C3F307239C4287B000F299800020FFF7E8
:1016EC0081FF4E4BC1F8C030844216D14C4D01A83D
:1016FC002C70FFF705FA002607464A4CB74213D167
:10170C0000202B784349D1F89020C2F30722934252
:10171C0077DBFFF75BFF002046E0696801EB001107
:10172C00FFF78AFE0130DFE70199300101EB061368
:10173C00DA682240B2F1807F52D00AD8B2F5001F8D
:10174C0034D0B2F5800F3ED0B2F5801F12D00136E6
:10175C00D4E7B2F1006F43D0B2F1805FF7D15A6891
:10176C009B680958013B22F01F00034423F01F0320
:10177C00012032E05A689B680958013B22F01F0097
:10178C0003440120844623F01F0340EA4C10CDE9AA
:10179C0002218DF8100002A928780593FFF764FE4A
:1017AC0000282ADA6FF0150007B0F0BD5A689B6864
:1017BC000958013B22F01F0003444FF0020C01209A
:1017CC0023F01F03E1E75A689B680958013B22F09C
:1017DC001F000344062023F01F034FF0000CD4E736
:1017EC005A689B680958013B22F01F0003444FF0D4
:1017FC00030C012023F01F03C7E72B7801332B7058
:10180C00A5E7C1F89830C1F8A00001337BE74FF091
:10181C00FF30C9E700ED00E0D4720000AAFF4400DD
:10182C00340A00200000F0FF08B5024B1B689847F3
:10183C00002008BDC8050020034B044A18609378AB
:10184C0043F0020393707047C8050020F400002099
:10185C0008B50649064821F00701C1F1005202F50E
:10186C00383203F0C6FD002008BD00BF87170020EA
:10187C00CC05002008B5244A244B1A6000F082F8ED
:10188C004FF47A612248D0F82436C3F30802C3F32C
:10189C0009434B4382F480721E49883201FB0233A8
:1018AC004FF4FA215B00B3FBF1F201FB12331A493E
:1018BC00B3F57A3F28BF0132C1F80429D0F820369D
:1018CC004FF47A60C3F30802C3F30943434342F273
:1018DC001C5082F4807202F2172200FB02334FF488
:1018EC007A701B0AB3FBF0F200FB12330020B3F545
:1018FC00FA7F4FF0010328BF0132C1F81C27C1F851
:10190C000009C1F8003608BD0020A10740020020E4
:10191C0000C0FF00F82A00800000125048B1054BAF
:10192C00054A1B68B3FBF2F35843044B43F0010325
:10193C00184770474002002040420F00B072000070
:10194C0008B500224FF480214FF0005000F0D0FE7B
:10195C000A4AD2F8183523F00103C2F818354FF0B3
:10196C00FF32074BC3F80026012203F59033C3F86E
:10197C000025BFF34F8F20BFFDE700BF00F00C50D8
:10198C0000E010500122024BC3F80424704700BF42
:10199C00002008E0084B70B5C31A0D4607499B1090
:1019AC00044659434022064803F0EFFE2B460146FD
:1019BC002046BDE870401847EC050020B76DDBB63B
:1019CC00EC680000402373B50B4C0093041B0B46D2
:1019DC000D460A49A41061430646094A094803F01A
:1019EC00FFFE014628B130462B4602B0BDE87040E0
:1019FC00184702B070BD00BFEC050020B76DDBB618
:101A0C005B580000EC680000F8B500220121054687
:101A1C0040F20510FFF7F4FB0F4800F075FE04468A
:101A2C00B8B900F091FE2F690C49384603F08AFDD5
:101A3C00031E09DB01263E642D69084905F11C00D3
:101A4C0003F080FD031E02DA1C462046F8BDEE644E
:101A5C00FBE76FF00404F8E7951B0000007300002F
:101A6C001FB5002201236C46CDE902236B46074AC1
:101A7C00CDE9004403F0E4FE28B943F609520023F3
:101A8C00684601F0F9FD04B010BD00BF6D580000B0
:101A9C0010B5EFF31184202383F31288BFF36F8FFB
:101AAC00074A136823F00201DB07116002D40120FE
:101ABC0004F035F884F31188BFF36F8F10BD00BFAD
:101ACC003C0600200C22104B014602FB0033002088
:101ADC0030B4D3E90E529863EFF31180202484F3D1
:101AEC001288BFF36F8F1C6C04F0C00444F0020426
:101AFC001C6480F31188BFF36F8F1DB12B4630BC73
:101B0C000248184730BC7047EC050020EC68000018
:101B1C0010B4EFF31180202282F31288BFF36F8F81
:101B2C0016490B6843F0020413F001030C6017D044
:101B3C00134BD3F80C3413F4803311D0EFF3118121
:101B4C0082F31288BFF36F8F0E4A136C03F0C0033D
:101B5C0043F00203136481F31188BFF36F8F0123E9
:101B6C0080F31188BFF36F8F1BB1002010BCFFF7FF
:101B7C00A9BF012010BC03F0CABF00BF3C06002067
:101B8C0000E01050EC050020022808D0042808D1F1
:101B9C00044B186C10F0070003D1FFF793BF012022
:101BAC00FBE77047EC0500202DE9F041012280464F
:101BBC003549D1E8EF3FC1E8E02F0028F9D133B91E
:101BCC00324933484B60CB608A6003F0CEFC08F19D
:101BDC00FF33012B4BD8B8F1010F06D12D4BD3F8A5
:101BEC00503403F00303012B41D004F020FA0546D6
:101BFC0050B1EFF31186202383F31288BFF36F8F5C
:101C0C000125244C244F20E0244B1B78002BF0D0D2
:101C1C000422204B0646C3F80823F2E74DB33046A6
:101C2C0003F074FDD4F8403413F0FF030DD1D4F855
:101C3C00082152B1C4F80831D4F80831202201230C
:101C4C00C4F84034C7F8A0212361D4F84C24D4F84C
:101C5C004C34D203E2D503F00303012B02D0B8F1CC
:101C6C00010FDBD155B186F31188BFF36F8FBDE83F
:101C7C00F0810021202004F04EFAD3E70422054B1A
:101C8C00C3F80423F3E700BFE8050020D8050020C3
:101C9C000806002000E0105000E100E0370A0020A8
:101CAC0008B5074804F09AF938B10648FFF7C4FDA7
:101CBC000448FEF7F9FD002008BD6FF01200FBE7A9
:101CCC006C690000D51C00000A2838B50446074D85
:101CDC0004D1AB680D2128465B689847AB68034874
:101CEC005B68E1B29847204638BD00BF6C690000C4
:101CFC0070B546680546B068C0B104F0F6F8014608
:101D0C00A0B9B06800F074FF0446A8B902460C49AB
:101D1C00B06804F0D4F822460121DB20FFF770FAFA
:101D2C002246012140F20D10FFF76AFA2846BDE861
:101D3C007040044903F098BC6FF0040070BD00BF04
:101D4C00D11E0000175900002DE9F04340F2063572
:101D5C004768D00648BF4FF0030C3B7C02EA0505F0
:101D6C0058BFC2F3401C87B001F01F06B5F5837F46
:101D7C00144646EA43168DF803C045D00DD8062DFF
:101D8C0044D005D8A5B1022D12D06FF0150038E063
:101D9C00B5F5807FF9D101250AE040F20222954287
:101DAC0036D0B5F5407F35D0B5F5007FEDD10425A3
:101DBC00220331D501237A688B405360B86890BBFD
:101DCC005F2E06F01F034FEA561175D83C4A52F8A5
:101DDC002120C4F3004102EB8302D2F8803081F061
:101DEC000101C4F3404423F4706344EA410423F03A
:101DFC000F031C4344EA8C0444EA0524C2F88040D7
:101E0C00002007B0BDE8F0830925D1E70825CFE70E
:101E1C000625CDE70525CBE7630341BF01237A688F
:101E2C008B409360CAE731460DF1020204F04AF888
:101E3C0014F4403F80460CD13146B86804F05BF88E
:101E4C00B8F1000FDCD19DF80210B86800F008FF63
:101E5C00D6E74FF0000901ABCDE90199CDE9043982
:101E6C00CDF80C903146B86803AA03F074FF4845CE
:101E7C00C6DB14F4003314D09DF80330C4F30044D3
:101E8C0084F001048DF80E308DF80C508DF80D4057
:101E9C004B463146B86803AA00F034FE0028CFDA6E
:101EAC00AEE7CDE904330DF1030303933146B86873
:101EBC0003AA03F050FFF1E7203350F82330FFDE84
:101ECC001C7300004209022A034670B503D0012A94
:101EDC0018D0CAB170BD0E4E326951680029F9D0C4
:101EEC00012503F01F030C689D400029F2D08A687D
:101EFC002A4002D030464B6898473CB123682146B3
:101F0C001C46F2E7034EE7E7034EE5E72346F6E708
:101F1C004C6900002C6900000C690000F0B54468A5
:101F2C001646A068227C01F01F0587B045EA4215D1
:101F3C0000286CD0B6F5001F04D1294604F02DF80A
:101F4C00002055E06268607CB6F5800F50624FF05F
:101F5C00000001AA0190506039D1B3F1007F14BF89
:101F6C00052304238DF804300023CDE904230393C7
:101F7C00E3680DF1030723FA01F111F0010139D1E6
:101F8C00B6F1A07F36D105F01F035F2D4FEA551037
:101F9C0003F120033ED8214A52F8202052F8233076
:101FAC00DB0727D43A462946A06803F08BFF16308E
:101FBC0018D002972946A06803AA03F0CCFE00288B
:101FCC0016DB01222946A06803F097FFB8E7B3F1AE
:101FDC00C06F05D0B3F1007F14BF01230223C1E70A
:101FEC000323BFE73946A06800F044FE0028E0DA7E
:101FFC0007B0F0BD3A462946A06803F063FF0028FD
:10200C00D8D19DF80310A06800F02AFED2E76FF03B
:10201C008500EDE751F82330FFDE00BF1C73000094
:10202C001A4BD3F8002602F0010312F0060F18BF6A
:10203C0043F01003110648BF43F48073D10548BF29
:10204C0043F08003510548BF43F02003510648BFBD
:10205C0043F00203910548BF43F08003D10448BF0D
:10206C0043F08003110748BF43F02003D10648BF5B
:10207C0043F02003910648BF43F02003120548BFEC
:10208C0043F4006303600020704700BF00E0105071
:10209C004FF0FF32024B0020C3F80026704700BF00
:1020AC0000E01050036803F01F025F2B02604FEA40
:1020BC0053129ABF024B53F822000020704700BF06
:1020CC00647300002DE9F74F154606464FF00108E2
:1020DC0000EB8101B14203D1002003B0BDE8F08FC9
:1020EC003268C2F3C323082BC2F3080400F2A080A9
:1020FC005148C75C40F2FF139C4208BF4FF0FF34BD
:10210C00B2F1D05F4FEA126310D2192B12D8DFE86C
:10211C0003F014233734282F34111111111111111C
:10212C0011111111111111113A717477382B6AD0E8
:10213C004E2B25D06FF08500CFE7C5F80446621C06
:10214C0056D001A80194FFF7ADFF019B4FF0010998
:10215C0008FA03F3436029E0C5F80C464FF0000A77
:10216C0062E04FF00009C5F80046601C16D13FE054
:10217C004FF00109C5F80446F7E7C5F80846EDE746
:10218C00C5F81046DBE7C5F860457388621C03F0A0
:10219C0001032DD0002BD4D14FF0010901A80194DB
:1021AC00FFF780FF019B08FA03F383604FF0010AED
:1021BC00D6F800B001A81BF4004F1CBF4FF001096A
:1021CC004FF0000A0194FFF76DFF019B1B4C00EBD5
:1021DC008300D0F88020CBF3412B3B0243EA8B03E6
:1021EC0043EA0A031440234343EA4903C0F880300E
:1021FC0004366FE7C5F86445C7E7C5F86845C4E71A
:10220C00C5F86C45C1E701A80194FFF74BFF4FF0EF
:10221C00010A019B00EB8300D0F8803023F0E043EF
:10222C0043F08043C0F88030631CE1D0D146BFE757
:10223C006FF0150051E700BFA87A0000F0F0FCFF2A
:10224C0038B5054600220121C620FEF7D9FFC6206D
:10225C00FEF7A6FF6C680121E06803F090FB6B6849
:10226C0019686369C1F82435E28BA38BA07E1343F4
:10227C00228C1343628C1343627E9BB20243207EFA
:10228C0002431343C1F86C3569680B68D3F800221C
:10229C0042F48022C3F800220822C3F800254A6ABF
:1022AC000121C3F83C270022C3F840271965D3F855
:1022BC0030110029FBD0C3F800252846BDE8384072
:1022CC00014903F0D1B900BFA95900002DE9F34130
:1022DC0004460D46476803F0AAFE88B12022EFF3AE
:1022EC0011831E4682F31288BFF36F8F61680968F1
:1022FC00D1F83011D1B983F31188BFF36F8FEEE7AA
:10230C00224B1B78002BE9D04FF020086426636821
:10231C001B68D3F830313BBB012003F0A7FB013E17
:10232C00F5D10021202003F0F6FEEFE77B6A204672
:10233C001D7063680DF107017F6A1D6803F07FF95A
:10234C009DF807204AB90123C5F83C77C5F84037FA
:10235C00C5F83021D5F830212B6586F31188BFF3F1
:10236C006F8F02B0BDE8F081EFF311831E4688F346
:10237C001288BFF36F8F62681268D2F83021002A7E
:10238C00D4D183F31188BFF36F8FCAE7370A0020CB
:10239C0070B40F4CD4E90015501A63EB05064009D4
:1023AC0040EAC6602026E0FB0615C4E900150024AF
:1023BC0000250849C1E90023074BC3E90045EFF3A9
:1023CC00118186F31288BFF36F8F70BC01F020BEB1
:1023DC0020030020080300201803002008B5002269
:1023EC000121E420FEF70CFF164A0020D2F8183722
:1023FC0023F44033C2F8183700F084FD002820DBAA
:10240C000120114900F00AFE00281ADB00F054FDEF
:10241C000E4B20F01F00C3E900010D4B0022C3E955
:10242C0000014FF0FF304FF0FF310A4BC3E90001C0
:10243C00094B0A49187A00F04FFD67220020084B1F
:10244C001A6008BD00200E503C0200202003002022
:10245C000003002008030020340200209D2300000C
:10246C006C06002008B500F027FD064AD2E90032C0
:10247C00C01A054B61EB0201C3E90001400940EAB7
:10248C00C16008BD2003002018030020F7B5224BC3
:10249C000146224F187A224BD7E90056D3E9002384
:1024AC009E4208BF954211D1B1F1806F0ED2490105
:1024BC00012938BF012101224D1946F10006C7E957
:1024CC00005603B0BDE8F04000F02EBE154BDFF80F
:1024DC0058C0D3E90043DCE9002CA41843EB0C0CE6
:1024EC004FF0200E22466346C1FB0E23954276EB3D
:1024FC000301C7E900230DD2291B66EB0C04C82984
:10250C0074F10004B4BF01210021009100F0D6FD4C
:10251C0003B0F0BD0021F8E73402002010030020C6
:10252C00080300202003002018030020064BD3F8DA
:10253C0040231C2A05D1D3F84403431E584258416A
:10254C0070470020704700BF00C0FF0003689A0767
:10255C000CD50368DB070DD50922074BC3F80C25F6
:10256C000F22C3F8042501221A60FEE7034B036017
:10257C00EF3B0360704700BF00801050F000FA5032
:10258C0008B50123404A4148C2F80038404AD2F805
:10259C0040231C2A04BF3F4AC2F80C34FFF7D6FF75
:1025AC000830FFF7D3FF0830FFF7D0FF0830FFF7F4
:1025BC00CDFF00F5F470FFF7C9FF374AD2F88C3025
:1025CC0043F44063C2F88C300022D30003F57F0340
:1025DC0003F54043D3F8001401310AD0D3F80014AA
:1025EC0039B1D3F800140132D3F80434402A0B600B
:1025FC00EBD1254BD3F84024002A41D0FFF796FFAE
:10260C0048B1234BD3F83423244B9A429EBF1E4B24
:10261C00234AC3F84026FFF789FF18B1214B224A01
:10262C00C3F8AC27FFF782FF48B13422164BC3F82E
:10263C002426D3F83C2622F40022C3F83C261B4B5C
:10264C001549D3F80026D20744BF6FF00102C3F836
:10265C000026174BD3F8182522F00302C3F81825CF
:10266C00D3F8182542F00302C3F81825D1F88C20B2
:10267C0042F44062C1F88C200022C3F8A02508BDAA
:10268C00C822C3F84024B9E70000125000C50D5011
:10269C0000C0FF000030055000ED00E0001D0A18DE
:1026AC0040E0A91E00A0085078000A0400E0105079
:1026BC0000B004500D4B0001034452B1D3F808256F
:1026CC000A43C3F80825D3F80C251143C3F80C159D
:1026DC007047D3F8082522EA0102C3F80825D3F87D
:1026EC000C2522EA0102C3F80C25704700F00C50AF
:1026FC00014B03F0F0B900BFC1260000014B1B6871
:10270C00184700BF7006002010B50C4C237993B904
:10271C00012323710A4B0028206018BF184600F0D3
:10272C00F3F850B923680748002B08BF1846BDE8DA
:10273C00104000F035B86FF0770010BD7006002027
:10274C0009270000175B000008B5074B1B6853B145
:10275C0040F20510FEF746FD28B9BDE8084040F2EE
:10276C000510FEF71DBD08BD7006002038B504230A
:10277C000A4C42F21075C4F808330123636100233C
:10278C00C4F80831D4F80831D4F84C34DB0304D540
:10279C00012003F06BF9013DF6D138BD00E010507B
:1027AC00064A13793BB9012110601171044A18468D
:1027BC00C2F8403470476FF07700704778060020FD
:1027CC0000E0105010B51D4B1D4CD3F84C14D3F831
:1027DC004C2411F4803F19D002F00302012A01D0DD
:1027EC008AB90022154BC3F840240022C3F80821F3
:1027FC00D3F8082101221A6122688AB9D3F808217A
:10280C00002AFBD014E0FFF7B1FFEAE7D3F8482425
:10281C00D107E6D5D3F850249207F4D422681AB124
:10282C000422C3F8042310BDD3F80821002AFBD0DE
:10283C000022C3F80821D3F80831F4E700E0105067
:10284C0078060020F8B50125184C194ED4F80C3335
:10285C0003F00C0303B9F8BDB3FA83F30027C3F1FB
:10286C001F039A0002F5807292B202F1A04202F5A7
:10287C008712176005FA03F1022B1268D8B2C4F85C
:10288C00081310D1D4F84C34D4F84C349B070AD12B
:10289C000423C4F84054C4F804332561D4F80C3331
:1028AC0003F00C03D6E733689847F7E700E01050C5
:1028BC0078060020712238B5104B0021C3F808238C
:1028CC00012242F210745A60C3F80011D3F80011BF
:1028DC000B490A4DD1F840131C2908BFDA60D5F812
:1028EC000C3413F4803305D0012003F0BFF8013C05
:1028FC00F5D138BD034A5371FBE700BF00E010501F
:10290C0000C0FF0080060020054B0246187918B95C
:10291C001A6001221A7170476FF07700704700BF80
:10292C00800600200022164BC3F81021D3F810119A
:10293C00C3F81821D3F81811C3F81421D3F81411C3
:10294C001049D1F840131C2904BF01219960C3F828
:10295C000021D3F8002101221A600B4A126852B9E7
:10296C00074BD3F80021002AFBD00022C3F800212A
:10297C00D3F8003170477122C3F80423704700BFAD
:10298C0000E0105000C0FF0080060020F8B50126C2
:10299C00194C1A4DD4F80C3303F0710303B9F8BD7C
:1029AC00B3FA83F30021C3F11F039A0002F580727E
:1029BC0092B202F1A04202F58712116006FA03F7F7
:1029CC00042B1268D8B2C4F8087308D0062B10D0A8
:1029DC002B689847D4F80C3303F07103DEE702231D
:1029EC006B71C4F81411D4F814312023C4F80433D7
:1029FC00EEE76971ECE700BF00E0105080060020A4
:102A0C00036803F01F025F2B02604FEA53129ABF58
:102A1C00024B53F822000020704700BFD87300000F
:102A2C00034A4309D35C00F01F001844C0B270473E
:102A3C00B17A0000F0B50646002487B0114F019121
:102A4C0017F8012B06AB03EBD20313F8143C02F07E
:102A5C000702D34013F0010306D10134032CEFD14C
:102A6C000023184607B0F0BD074A03AD07CA85E836
:102A7C00070055F824100A6A46F824200A62002A36
:102A8C00EBD0EEE7C17A0000A0720000F7B5044667
:102A9C000846FFF7C5FF04EB4006B38A0D46DB077B
:102AAC002AD5204603F035F92946204603F0A2F832
:102ABC0050B1204603F0B4F80023276807EB8000E0
:102ACC00C0F81035C0F810352946204603F0D1F86F
:102ADC00002101A8B1820195FFF792FF019B00EB49
:102AEC008300D0F88020064B134043F00203C0F85B
:102AFC008030084603B0F0BD6FF01500FAE700BF58
:102B0C00F0F0FCFF2DE9F043044685B0084615466D
:102B1C001F46FFF785FF0E46804625B3204603F07F
:102B2C0074F818B9204603F065F818BB04EB480993
:102B3C00B9F8143003F01C0313B16B78012B19D0C6
:102B4C0001238DF80F3000233046CDE900536A1C69
:102B5C00AB1C0DF10F0102F0F5FFB9F8143043F086
:102B6C000303A9F81430002F3ED03146204603F061
:102B7C004CF820B96FF0150005B0BDE8F0830022C9
:102B8C00397823684FEA810C03EB8103C3F81025D5
:102B9C00C3F8102504EB4802938A23F4604323F016
:102BAC00200393827D78FDB12468B8786444D4F80E
:102BBC0010750E4B2D043B40C4F8103541F6F073E4
:102BCC0005F4403503EA06130005D4F810752B43C1
:102BDC0000F4801003433B43C4F81035938A43EA56
:102BEC00413343F0200393820020C5E70FE0ECFF54
:102BFC0070B590F87440054690F8756044BB462259
:102C0C002146143003F0BAFD2146134A2B6852F8C2
:102C1C0036608E4212D1002440F20D10C3F84441AC
:102C2C00D3F844210D4A934208BFDB20FEF7B8FAD3
:102C3C000123204685F874302B6670BDCAB2920011
:102C4C0002F58070442A04BF1C501A580131E0E789
:102C5C006FF07700F1E700BFE473000000A00D50A7
:102C6C0090F87500024B03EB800002F01BBF00BF15
:102C7C004402002010B5064B90F875000C4603EB8F
:102C8C00800002F0F5FE0028A4BF2070002010BDCB
:102C9C00440200202DE9F04F804658F804BB90F810
:102CAC007540DBF814136A4BC9B253F8342007464D
:102CBC008BB0584641F4003103F004F8820305460A
:102CCC0039D50023CDE907330993614BE60003EBBB
:102CDC00C404636807A819460093FFF7ABFE331DC5
:102CEC0003934FF0000A5B4B0DF11C090293029AFF
:102CFC00574912F8013B0292039A02EBD3028A5C09
:102D0C0003F0070322FA03F3DB071AD40AF1010AD2
:102D1C00BAF1030F09F10409E9D14FF40031002293
:102D2C00584602F0CFFF009907A8FFF783FE002852
:102D3C00D7D125F400350124002D73D10BB0BDE89B
:102D4C00F08F454B53440493D9F80060002EDDD02E
:102D5C0096FAA6F6B6FA86F6049B1C7846EA441454
:102D6C002046FFF75DFE07EB4000818AF208C1F3B5
:102D7C00820305930193012319F8020006F007065C
:102D8C0003FA06F620EA060009F8020006A80694E3
:102D9C00FFF736FE069A11F0100F02F1200250F8E0
:102DAC002260059BC6F3014623D04046019A21467A
:102DBC0002F040FF06A80694FFF722FE069BF6B22F
:102DCC00203350F82330C3F301439E4207D1002136
:102DDC00204602F000FF3146204602F0FCFE06A819
:102DEC000694FFF70DFE0122069B02FA03F3036221
:102DFC00AAE7022E14BF022103212046059302F0FC
:102E0C00EAFE059B032B03D0022E07D1012BE6D142
:102E1C0021464046019A02F00DFFE0E7032EDED179
:102E2C00022BF4E795FAA5F3B3FA83F304FA03F251
:102E3C0025EA020503F5A2725BF8222007EB430397
:102E4C004046B3F86410C2F3014202F0F3FE73E79C
:102E5C00E4730000C17A0000C17A00000123034A28
:102E6C0003FA00F0936803439360704760000020FE
:102E7C0073B504460191EFF31186202383F3128876
:102E8C00BFF36F8F0B4D019B6A6801A81340019330
:102E9C0002F0EEFD002807DB01226B68824023EA7A
:102EAC0002036B602070002086F31188BFF36F8FD4
:102EBC0002B070BD600000204FF0FF326FF0404355
:102ECC0030B5044CD4E90001824273EB0105F9D30F
:102EDC0030BD00BF40270E5030B50C25074B1C18D9
:102EEC0094F8544005FB0433C3E90312187501230D
:102EFC00034A8340C2F8243330BD00BF6000002079
:102F0C0000200E50F8B53E4C2278002A72D13D4B71
:102F1C00D3F8101521F00201C3F81015D3F81015D1
:102F2C0041F00101C3F810150521C3F8A4160421C2
:102F3C00C3F8AC160723672101F001000244013BE2
:102F4C00D2B24FEA5101F7D1052A56D119464FF0AA
:102F5C00010C2B4E00256720CFB204E00CFA02F2D4
:102F6C0020EA0200013590FAA0F25FFA85FEBE4518
:102F7C00B2FA82F2F2D3013132750529224482F879
:102F8C00547006F10C06E5D1012100251E489A0863
:102F9C0001FA02F212F0670F18BF1D500433302BE8
:102FAC00F5D1E420FEF7FCF8164B1849D3F81025A0
:102FBC0003F5C07322F00202C3F8902340F6FF72AF
:102FCC00C3F8A82100221A60A3F5807004338B4249
:102FDC000260F8D101250B4B0D4A1D660D4B5D208F
:102FEC001B68B3FBF2F358430B4B2B439847002061
:102FFC002570F8BD6FF07700FBE76FF08B00F8E7FA
:10300C006000002000200E5000210E50B0210E5008
:10301C0040420F0040020020C072000038B5244B23
:10302C000D46D3F8102594073CD4D3F8102542F064
:10303C000202C3F81025C0B1D3F8482712F00102E0
:10304C0002BFD3F8481741F00101C3F84817184BD9
:10305C00D3F84017D3F844174800F9D42AB9D3F859
:10306C00482722F00102C3F84827124B124A1B686A
:10307C00B3FBF2F30E4A03EB4313B3B1D2F8401790
:10308C00D2F8441749000BD44FF0FF312846FFF714
:10309C00EFFE044610B92878FFF7E0FE204638BD55
:1030AC00013BEAE76FF07704F8E76FF07304F5E79C
:1030BC0000200E504002002040420F0070B51E460A
:1030CC001546174A9DF81010131893F854300C330A
:1030DC0002EBC30442F833506660C6F313020401DA
:1030EC00A1B104F1A04404F56224C4F82055C4F83D
:1030FC0024250C4C80000444236833B1FFF7DCFE1C
:10310C00A842B14101D20023236070BD04F1A04359
:10311C0003F56223C3F82055C3F82425F5E700BF57
:10312C006000002000210E50F0B50E4D2B1893F8C6
:10313C00543000010C3355F8334005EBC3077E685F
:10314C00641800F1A04021F0004146F1000641EA6C
:10315C00C27100F5622045F833407E60C0F8281536
:10316C00F0BD00BF60000020F7B5284B284CD3F809
:10317C002C6304F188070EB903B0F0BD96FAA6F0E3
:10318C000123B0FA80F08340DA43224926EA030691
:10319C00231893F85450830019440C2303FB054364
:1031AC00DB6873B3D7E8EF3F03EA020CC7E8EECF56
:1031BC00BEF1000FF6D1C340DB0719D5020102F1B5
:1031CC00A04202F56222D2F82435D2F82025D1F89B
:1031DC0000C0BCF1000FCED04FF0000CC1F800C005
:1031EC000C2101FB054529690091E9688847C2E774
:1031FC0005F10C0304EBC30C54F83320DCF8043059
:10320C00E5E70A68002AB6D00B60B4E700200E5040
:10321C006000002000210E50044B40EA0120C3F84E
:10322C000005D3F80024D207FBD5704700B004503A
:10323C0038B5EFF31185202383F31288BFF36F8F1A
:10324C00064B9C6802F0DDFE85F31188BFF36F8F8F
:10325C002046BDE83840FEF75FB800BF8806002066
:10326C0038B50A4B53F82040013053F82050A54292
:10327C0000D838BD606830B1037EDB0701D402F0A2
:10328C0095FE0834F3E723689847FAE7F4730000D7
:10329C00012270B5294B86B003201A70FFF7E0FFAE
:1032AC0003F006F80420FFF7DBFF254C254D2646DE
:1032BC00AE4204F130040FD300F0E2FB204CAC42E0
:1032CC0026D300F0F1FBFDF775FA1F4A938923F022
:1032DC000103938106B070BD54F80C3C059354F86F
:1032EC00103C049354F8143C039354F8183C029388
:1032FC0054F81C3C019354F8203C009354E90A23E5
:10330C0054E90C0100F0DEF954F8303C5E65CEE770
:10331C00D4E90A23B3F1FF3F08BFB2F1FF3F05D058
:10332C0052EA0301206803D102F01EFF3034C6E7D5
:10333C000649183000F0DCFDF8E700BF370A002022
:10334C000472000004720000E0030020FD60000025
:10335C00B82370B5144E86B003FB0066134B0122E4
:10336C0005930F23CDE903320023CDE90133142358
:10337C004FF4A0720E4D0F4903FB0055044602FB9F
:10338C0000110D4B3046009500F09CF9337C2C74E9
:10339C0023F004033374094B013403EBC423EE60B4
:1033AC006B6006B070BD00BF28030020877A000058
:1033BC00880600204012002015600000400A002002
:1033CC007FB50020FFF74CFF284B03F5006282F31A
:1033DC00088883F30A880024E023254D85F82230E1
:1033EC00EC772C766C76AC7685F820406B6A43F4DF
:1033FC00E0236B6285F82340FDF73AFEFDF776FF7C
:10340C004FF0FF33AB62EB62FEF75CF9FDF7F6FFB2
:10341C00184800F0BDF90120FFF722FF0220164DDD
:10342C00FFF71EFF00F06AFB144B4FF480625D61E6
:10343C00134B1449059301232846CDE90343CDE9E9
:10344C000144114B009400F03DF906462B7C2846B4
:10345C0023F004032B7402F028FE2046FFF778FFBC
:10346C0031462846084AFDF71FFF00BF400A0020DE
:10347C0000ED00E098040020E00300208806002006
:10348C008C7A0000801300209D3200002DE9F3415E
:10349C00044617461E46EFF31188202383F3128847
:1034AC00BFF36F8F304BC2689B6872B180689842D3
:1034BC0017D057EA060216D188F31188BFF36F8F25
:1034CC006FF00F0002B0BDE8F08193F90E100132DD
:1034DC002161C4E9023288F31188BFF36F8F002099
:1034EC00F0E72169F3E793F90E1090F90E30994249
:1034FC0030DA9942A8BF194602F091FD05462246E2
:10350C004146CDE90076194800F02CFA0028E6D0A7
:10351C00EFF31186202383F31288BFF36F8FA0681B
:10352C00D0B1236821699C420AD04BB193F90E307B
:10353C009942A8BF19466FF07F039942B8BF19464C
:10354C0002F06DFD40B13146084802F0E1FD6FF02C
:10355C000A00B7E70025D2E7002DF4D186F31188D5
:10356C00BFF36F8FF3E700BF88060020380A0020F6
:10357C00F8B583680546002B40D0234A92689342E5
:10358C003FD1C368012B03D9013BC3600020F8BDB8
:10359C00EFF31187202383F31288BFF36F8F016938
:1035AC00806802F03CFD2C68A54207D10023C5E9D8
:1035BC00023387F31188BFF36F8FE7E7002CF5D048
:1035CC00D4E90032002613605A60237CC4E90066FB
:1035DC0023F002032374A66004F1180002F02FFEFE
:1035EC00AC6094F90E3020462B61C4F8B46002F044
:1035FC005CFD3946054802F08BFDC7E76FF01500FE
:10360C00C5E74FF0FF30C2E788060020380A0020DB
:10361C0070B5EFF31186202383F31288BFF36F8FFD
:10362C000468A0421BD0D4B1D4E900320025136049
:10363C005A60237CC4E9005523F002032374A5606F
:10364C0004F1180002F0FBFD2046C4F8B45002F05F
:10365C002CFD3146BDE87040064802F059BDD0E95A
:10366C0002329A4218BF0133836086F31188BFF38C
:10367C006F8F70BD380A002013B5EFF31181202431
:10368C0084F31288BFF36F8F846844B1013C84606B
:10369C0081F31188BFF36F8F002002B010BD52EA86
:1036AC00030406D181F31188BFF36F8F6FF00F0005
:1036BC00F3E7CDE900230246014800F053F9ECE7AB
:1036CC00380A00202DE9F04F984685B000F15803D8
:1036DC00C0E91633129B002583810423D61D26F0E6
:1036EC0007060374119B01EB060A0F46C0E9065549
:1036FC00514685608373C5730446DDF838B0DDF838
:10370C004C90FDF7B3FA109B073020F00700C4E98A
:10371C002776C4F8A40002930F9BAAEB0006CDE910
:10372C0000B33246434639462046FDF7A1FD0F9BB8
:10373C00C4E91A8B2367109B65656367EFF31183EC
:10374C00202282F31288BFF36F8F104F3A6A3C62CB
:10375C00A26783F31188BFF36F8FB9F1000F11D0FB
:10376C001F22494604F17C0003F010F884F89B50AA
:10377C00BB680BB1D3F8A8303046C4F8A83005B0FC
:10378C00BDE8F08F84F87C90F2E700BF880600203B
:10379C000123037483810023C0E92733C0F8A830C8
:1037AC00014B9860704700BF880600206FF00A013B
:1037BC00094A9368C3F8B4100849C3F8B0004B68C1
:1037CC0043F080534B60002383F31188BFF36F8F5A
:1037DC009368D3F8B40070478806002000ED00E031
:1037EC0070B590F91020037C002A2FDBD9062DD15F
:1037FC001A4C63F07F032246037452F8183FE169B8
:10380C00934207D1C0E900210860E0610FE09942C2
:10381C00F8D01B68002BF5D093F90E6090F90E5080
:10382C00AE42F4DD5968C0E9003108605860A56902
:10383C00954200D005B9E568A3681A7CD20606D17A
:10384C00DA897F2A03D9AA690AB9636170BDAB42D0
:10385C0002D0284600F0B0FA6561F7E78806002030
:10386C0038B590F910200146002A037C04DA03F0E5
:10387C007F03037402F0E1FB0D4D2A4652F8184FFA
:10388C00AB68944200D004B9EC688B4207D01A7C28
:10389C00D20604D1DA897F2A01D9A2692AB1A342BE
:1038AC0002D0204600F088FA23466B6138BD00BF79
:1038BC0088060020B3F1FF3F08BFB2F1FF3F03D0F1
:1038CC000249183000F014BB704700BFFD600000C7
:1038DC00034648B9EFF3058232B9064A516992683A
:1038EC00914201D0FFF762BF83F31188BFF36F8F52
:1038FC00704700BF8806002038B5184CA168E069F5
:10390C000B68814214BF1A46002249680B6059604B
:10391C00A368E1692AB9124AC3E900210B60E3618B
:10392C000AE092F90E5093F90E00854212DD5168AF
:10393C00C3E900210B605360A569094B9D4200D07F
:10394C0005B9E568A3689D4202D0284600F034FA18
:10395C00656138BD8A42DED01268DBE7880600203C
:10396C00A0060020F8B5DDE906670D4B0C469868FB
:10397C0011460C4A1060EFF31182202282F3128858
:10398C00BFF36F8F9D68284602F069FB28463246CC
:10399C003B46FFF78FFF2046BDE8F840FFF706BF18
:1039AC0088060020AC060020F8B50446EFF311871A
:1039BC00202383F31288BFF36F8F037C49B203F08B
:1039CC001F02002A0CBF0126002635D103F07F030D
:1039DC002A4D037402F031FB2A46037C817363F099
:1039EC007F03037452F8183FE869934207D1C4E986
:1039FC0000200460EC610DE09842F8D01B68002BAD
:103A0C00F5D093F90EC08C45F6DD5968C4E9003148
:103A1C000C605C60AC69944200D004B9EC68AB6893
:103A2C009C4202D0204600F0C7F96C6187F31188E4
:103A3C00BFF36F8F3046F8BD9B071CD5856802F02D
:103A4C00FCFA81732B689D4209D16B68C4E9005361
:103A5C001C606C60EAE76A689A42F6D01B68002B1F
:103A6C00F3D093F90E208A42F5DD5A68C4E900328E
:103A7C0014605C60DAE78173D8E700BF8806002029
:103A8C00EFF31181202383F31288BFF36F8F054B63
:103A9C009A68D37B013BD37381F31188BFF36F8F8B
:103AAC00704700BF8806002070B5EFF31186202305
:103ABC0083F31288BFF36F8F0F4DAB68DA7B013243
:103ACC00DA732A4652F8184F944200D004B9EC68C5
:103ADC001A7CD20604D1DA897F2A01D9A2692AB1CB
:103AEC009C4202D0204600F067F923466B613046B9
:103AFC00BDE87040FFF7ECBE88060020024B03F1D6
:103B0C001802C3E9062270478806002070B5EFF34F
:103B1C001186202383F31288BFF36F8F1A4CA16890
:103B2C00E0690B68814214BF1A46002249680B6099
:103B3C005960A368E1692AB9144AC3E900210B60F2
:103B4C00E3610AE092F90E5093F90E00854216DDFE
:103B5C005168C3E900210B605360A5690B4B9D4272
:103B6C0000D005B9E568A3689D4202D0284600F054
:103B7C0023F965613046BDE87040FFF717BE8A42F5
:103B8C00DAD01268D7E700BF88060020A006002014
:103B9C00F8B550EA010306460C4603D1FFF7B6FF11
:103BAC000020F8BDEFF31187202383F31288BFF3B5
:103BBC006F8F124D124BA8681860FFF751FEA86862
:103BCC00234632460F49183000F092F9AA68044691
:103BDC00137C384643F004031374FFF7E7FDAB681E
:103BEC00D3E90A23B3F1004F08BF002AD8D102F061
:103BFC005BFB201A20EAE070D3E700BF88060020A8
:103C0C00AC060020FD600000014B9868704700BFB7
:103C1C00880600202DE9F84304468789EFF31186C6
:103C2C00202383F31288BFF36F8F037C190705D50C
:103C3C0086F31188BFF36F8FBDE8F883D90943F081
:103C4C00080272D10274A36813B1204602F0FDF988
:103C5C0004F1180002F0F3FAA56D04F15808A84518
:103C6C0011D04FF0000975B1284602F0EEF905F1BC
:103C7C00180002F0E4FA2846C5F8B490FFF7B0FD3E
:103C8C00A56DA845EFD1DFF8C480D8F808309C4268
:103C9C0053D1EFF30589B9F1000918BF4FF00109B1
:103CAC00D8F818502A4A954200D00DB9D8F80C50C3
:103CBC00AB4202D0284600F07FF82046C8F81450DA
:103CCC0001F00DFD204600F0C7F8B9F1000F02D04D
:103CDC002048FFF75DFDD8F808309C4230D1EFF357
:103CEC0005836BBBA289D20711D586F31188BFF36C
:103CFC006F8F83F31188BFF36F8F0423184602DF95
:103D0C00EFF31186202383F31288BFF36F8F3046B5
:103D1C00FFF74CFDFB078FD5002383F31188BFF30E
:103D2C006F8F0423184602DF86E703F07F0343F00E
:103D3C000803037402F081F985E74FF00009AFE73F
:103D4C0086F31188BFF36F8FE4E700BF880600206D
:103D5C00A006002098040020027C034612F01F02EB
:103D6C0010D10A4988420DD00949086868B1D9892F
:103D7C007F2909D893F90E20064B1B689A42B8BFCD
:103D8C000020704700207047104670472803002021
:103D9C004C020020B00600200122044BC01A044B38
:103DAC00C0105843034B1A54704700BF50050020F5
:103DBC00ABAAAAAA380A002070B50C4B0C4D1E7C7D
:103DCC00FFF7CAFF182303FB06550446284602F0EA
:103DDC0036FA0022074B9A553CB1621E2846BDE8C4
:103DEC0070400549D31700F083B870BD88060020D9
:103DFC0050050020380A0020A53D000038B5EFF32F
:103E0C001185202383F31288BFF36F8F0F4B104A59
:103E1C009C681068A04206D1FFF7CEFF85F311888D
:103E2C00BFF36F8F38BD00211B7C1160094AD35C36
:103E3C00002BF3D02046FFF78FFF0028EED0237C19
:103E4C00DB0601D1FFF758FD2046E5E78806002088
:103E5C00AC060020380A0020EFF31181202383F3F5
:103E6C001288BFF36F8F0A4A136A834207D19B6F84
:103E7C00136281F31188BFF36F8F70471346002BC9
:103E8C00F7D09A6F8242F9D1826F9A67F1E700BF3F
:103E9C0088060020024B1868984208BF0020704723
:103EAC0050020020034B1B680BB9FEF7DBBA002055
:103EBC00704700BFB406002030B570B10B4B5B6887
:103ECC0098420AD0036843B1D3E90421D0E90445F0
:103EDC00121941EB0501C3E90421D0E9003213604A
:103EEC005A600023C0E9003330BD00BF50020020EF
:103EFC00B3F1FF3F08BFB2F1FF3F2DE9F84F044685
:103F0C00994615461F467AD08160EFF3118820231D
:103F1C0083F31288BFF36F8FB9F1000FDFF8E4A0C1
:103F2C0020DBFFF7BFFFDAE90027013549F1000973
:103F3C002D1849EBE07306464FF00109C4E9045310
:103F4C00AD1843EB0707FFF7A5FF0346DFF8B8E012
:103F5C00DEF804A0EBB9C4E900EACAF80040CEF8D8
:103F6C00044028E06FF00103DAE900125B1A4FF00D
:103F7C00FF3161EB02025B1B62EB0902012B72F158
:103F8C000001BCBF012300224FF00009C0E904323C
:103F9C00D9E7D3E9041CD4E904208A4270EB0C0B5A
:103FAC0024DA891A5A686CEB0000C3E90410C4E9DE
:103FBC00003214605C60FFF76DFF84420ED1134B2E
:103FCC001B685BB9B9F1000F02D1FFF76BFF064616
:103FDC00304602F01DF90021FEF758FA88F31188DB
:103FEC00BFF36F8F28463946BDE8F88F521A60EB45
:103FFC000C005345C4E90420ADD01B68AAE700258A
:10400C002F46EFE76805002050020020B406002080
:10401C002DE9F047DFF8A8900246C9F800000D46DC
:10402C00FFF738FF00260027DFF898804FEAE27E82
:10403C00D8E9001350B1D0E9044CA2427EEB0C0A33
:10404C001ADAA41A6CEB0E06C0E9044600245218C6
:10405C0043EB0E032046C8E90023C9F8004002F0E8
:10406C00D7F82146FEF712FA85F31188BFF36F8F4C
:10407C00BDE8F047FFF7C2BE611843EBE473C0E93B
:10408C000467C8E90013FFF717FF01224FF0004344
:10409C00C0E9042385F31188BFF36F8F83689847B9
:1040AC00EFF31185202383F31288BFF36F8FD9F8B8
:1040BC000020121BC9F80020FFF7ECFEB6E700BF8A
:1040CC00B40600206805002010B5EFF311842023FE
:1040DC0083F31288BFF36F8FFFF7E4FE0346054AA4
:1040EC00D2E90001181841EBE37184F31188BFF396
:1040FC006F8F10BD6805002038B50C4C0C4802F0D1
:10410C0007F965780A4802F009F90A4802F000F943
:10411C00022D08D12478E31F5C425C41054802F073
:10412C00FDF8204638BD0024F8E700BFB806002093
:10413C00580200207002002010B51B4C1B4802F0E6
:10414C00E7F82378590744BF03F0FB0323709A0761
:10415C0005D500F0B1F8237823F00203237013483F
:10416C0002F0DCF8124802F0D3F8637813B111486E
:10417C0002F0CCF8002304210E48637000F0B6F86E
:10418C000B4802F0CBF8094802F0C2F82378DB07A1
:10419C0005D502F0B8F8237823F001032370034807
:1041AC00BDE8104002F0BAB8B8060020700200203A
:1041BC0058020020BC06002070B5FFF79DFF10B11F
:1041CC000024204670BD344802F0A2F8044620B109
:1041DC006FF08F04FFF7B0FFF3E7304D2B789E079D
:1041EC0006D400F061F804462B7843F002032B70E0
:1041FC00294802F093F810B1002CE9D0EAE7002C22
:10420C00E8D1254802F084F804460028E0D12B7848
:10421C00D80706D402F075F804462B7843F0010356
:10422C002B701D4802F07AF80028E5D1002CD1D172
:10423C00194802F06DF80028CAD117482E7802F000
:10424C006DF80028C4D1164802F062F80446002824
:10425C00BED16B783BB9F10705D5124802F054F882
:10426C00022304466B700E4802F058F80028C3D1A4
:10427C00002CAFD1084802F04BF80028A8D12B78BD
:10428C0005485A075CBF43F004032B7002F046F854
:10429C00002895D09CE700BF70020020B8060020D3
:1042AC0058020020BC0600200122024B002083F89B
:1042BC00C0227047C00600202DE9F0410A4C0025B1
:1042CC0026464FF0010803272046C4F820802777A4
:1042DC00013501F0F9FF102D04F12C04F4D1002369
:1042EC0086F8C032BDE8F081C006002010B50A4641
:1042FC00044619B1024B00211B68984710BD00BF42
:10430C000C74000010B50C4C206802F083F90B4AB9
:10431C001368591C11604BB9094A4820D2F8003473
:10432C0043F00703C2F80034FCF73AFF2068BDE8FD
:10433C00104002F075B900BF8C02002084090020E7
:10434C000080045038B5164D286802F063F9154BFF
:10435C001C68013C1C60ECB94820FCF72FFF0722BD
:10436C00114BC3F80823D3F8002422F00702C3F83A
:10437C000024C3F80041D3F80021C3F80441D3F85A
:10438C0004214FF48072C3F80841D3F80831074B6D
:10439C00C3F888212868BDE8384002F041B900BF55
:1043AC008C020020840900200080045000E100E011
:1043BC0070B5104D104E2B68B34219D0FFF7A2FF09
:1043CC0000F08CFA00F0C8FA38B101F0A9FF0446ED
:1043DC00FFF7B8FF3CB92E6005E000F0D1F90446B8
:1043EC0018B1FFF7AFFF204670BD02F054F8EEE7AE
:1043FC000024F8E788020020117365000022074BA7
:10440C00C3F81021C3F80C21C3F80021C3F8042110
:10441C00C3F80821C3F81421704700BF00500450A2
:10442C0008B5FFF7EBFF01230360104B0A6832B9A4
:10443C00D3F80C211AB9D3F80821002AF6D00B684E
:10444C007BB90B4B99420ED0A3F58473D3F808318A
:10445C00002B14BF6FF002004FF0FF30FFF7CEFFC0
:10446C0008BD0020FAE74FF0FF30F7E7005004508A
:10447C000851045038B505460C4691B10021012075
:10448C0001F08DFD08480949C0F80055C0F80445F5
:10449C00FFF7C6FF00210446084601F080FD2046C8
:1044AC0038BD6FF00104FAE700500450005104507D
:1044BC00034B0449C3F800050348FFF7B1BF00BF25
:1044CC0000500450045104500450045010B50446DC
:1044DC000021012001F063FD064B0749C3F800459C
:1044EC000648FFF79DFF00210446084601F057FDE2
:1044FC00204610BD00500450085104500850045080
:10450C0038B50C4659B1074D0749C5F800050748A1
:10451C00FFF786FF10B9D5F80835236038BD6FF06A
:10452C000100FBE700500450105104500C50045093
:10453C002DE9F04F89B01C4607460D46164601F092
:10454C0087FF0346002840F0F8807A690090C2F398
:10455C00013161F305138DF8003013F0300308D1ED
:10456C00B868800710D06FF08608404609B0BDE8E7
:10457C00F08F102B08D1BDF8023023F4F87343F4FC
:10458C00A873ADF8023053E0D2B2F82A2ED1002233
:10459C004FF0010B904610469446D7F808E0DFF830
:1045AC00D09159F804AB1EEA0A0F08D00BFA0CF2A2
:1045BC0042EA080202F07F08012240EA0A000CF1EC
:1045CC00010CBCF1070FECD12AB19DF8032068F364
:1045DC0047028DF803203EEA000007D17A88FF2AB3
:1045EC000FD006D8802A35D0C02A35D06FF0850878
:1045FC00BBE7B2F5807F31D0B2F5C07FF6D1062291
:10460C0000E003229DF8020062F306108DF8020010
:10461C0013B91EF0030FA6D13B79022B2BD01FD858
:10462C00012BA0D1BDF8022063F3C812ADF8022013
:10463C00012938D0032923D0002994D13B88B3F524
:10464C00105FD3D1182C03D0202C01D0102C8AD180
:10465C00484F2CE00122D5E70222D3E70422D1E710
:10466C00032B02D0FF2B7FF47EAF0222BDF8023069
:10467C0062F3C81385E7BDF8023043F4C07380E7DA
:10468C00202C05D006D8102C02D0182C7FF46BAF40
:10469C00394F0CE024F02003412B01D0302CF5E7EE
:1046AC000136013CF4E7302C7FF45DAF334F4FF013
:1046BC0000080F344FEA141905EB080001F0A6FEB0
:1046CC00002852D008F10108C145F5D11F2C2ED17C
:1046DC001C22002101A802F051F84FF0000B4FF002
:1046EC00FF3A07EB0B124FEA0B130692BBF1000FCC
:1046FC0026D1009A0792BDF802203344C2F3C112AE
:10470C0005920DF1040C03F1100E624618685968FD
:10471C00083303C273459446F7D101A905EB0B008E
:10472C00FFF7A8FE804670B101F092FE05E0494605
:10473C00284601F075FE0028CAD06FF0920814E7E5
:10474C00CDF81CA0D7E71C2101A80BF1010B01F03F
:10475C0089FFD945C5D11F2C3FF407AFBA20FFF70D
:10476C00B5FE00283FF401AFE7E76FF08A08FCE6DE
:10477C00107400004000815100000020108404508F
:10478C0010B590B01C22002101A801F0F7FFF82011
:10479C0001F03CFE00B3202200200DEB020100F0E2
:1047AC008DF90446F0B94FF48071104A104B01A8F2
:1047BC00CDE901230F4BCDE903130F4BF8210693E1
:1047CC0020230DEB0302FFF7B3FE202104460DEB73
:1047DC00010001F047FF05E0F92001F017FE002869
:1047EC00D9D10446204610B010BD00BF00240001F2
:1047FC00014B4E800010C004F800FF7F10B504463A
:10480C00FFF780FD104B186801F004FF0CB1012379
:10481C002370BFF35F8F4FF0A3430020D861BFF329
:10482C005F8FBFF35F8F4FF0FF321A63BFF35F8F61
:10483C00BFF35F8F3422DA61BFF35F8F0122034B2A
:10484C00C3F8042310BD00BF900200200080045068
:10485C0010B5044608B1037843B1FFF773FD044B60
:10486C00186801F0DDFE0CB10023237010BD00BFF1
:10487C009002002038B5164CD4F80051C5B1BFF3E6
:10488C005F8F4FF0A343996ABFF35F8FBFF35F8FC6
:10489C004FF0FF321A63BFF35F8F0023C4F800316F
:1048AC00D4F800310B4B1868BDE8384001F0CBBE92
:1048BC00D4F8083153B100F069F801F003FEC4F8E4
:1048CC000851D4F808310121034BECE738BD00BF87
:1048DC0000800450980200209402002008B5074B79
:1048EC00186801F09FFE064B186801F09BFEBDE8AE
:1048FC000840002248201146FCF782BC9802002098
:10490C009402002038B5094B1C7864B1084B4FF069
:10491C00FF311D68284601F087FE4FF0FF31044639
:10492C00284601F08EFE204638BD00BF370A002015
:10493C009802002010B5064CE36C3BB9214651F8A7
:10494C004C3B986901F0C2FD0123E364014810BDA2
:10495C0088090020D409002010B50A4B0A4C2360AA
:10496C0003F5C04363602461FFF7E4FF236D00206F
:10497C00B3F5007FCCBF4FF480634FF40073A3609A
:10498C0010BD00BF002080518809002000487047EE
:10499C008809002000212DE9F043064695B0084611
:1049AC00FFF72CFF0DF12705044625F01F0520B15C
:1049BC0015B0BDE8F04301F0B3BC4FF01009DFF8BF
:1049CC008080012210211F4801F016FD1D4A2B1971
:1049DC00009320211023CDF80490A2F1200000F0C8
:1049EC000DF9074650B10020FFF732FF384601F0B1
:1049FC0097FC0746384615B0BDE8F083D8E90C3271
:104A0C001034013342F10002302CC8E90C32D8D1F9
:104A1C00FFF71EFF26B122463146284601F0DFFC87
:104A2C002E46074C0FCE0FC496E80F00203584E8B5
:104A3C000F0095E80F00103484E80F00DAE700BF90
:104A4C007005002090050020F0B5194D194FAB6B87
:104A5C008DB0BB4229D0184E306801F0DBFD4023ED
:104A6C0000221946284601F0F2FD3021684601F07B
:104A7C0053FD044678B96846FFF78CFF044690B99D
:104A8C00302302461946684601F0E1FD012200235D
:104A9C00C5E90C23AF63306801F0C2FD204601F07C
:104AAC003FFC0DB0F0BD0E24F5E70020F9E700BF88
:104ABC0070050020B4A5B4A59C0200202DE9F04F90
:104ACC0099B00DF1570902F10F0A044688461546B4
:104ADC0029F01F094FEA1A1A32B1002900F085801B
:104AEC00B2F5803F00F28180414F424E386801F0B0
:104AFC0091FDD6E90C32134308D12046FFF7A4FFF1
:104B0C00044618B1386801F08BFD5AE0D6E90C2345
:104B1C001AEB020243F10003B3F5803F14D33021AA
:104B2C0002A801F0F9FCF8B902A8FFF733FF04461C
:104B3C000028E7D130230246194602A801F087FD70
:104B4C0000220023C6E90C2300210846FFF756FE7D
:104B5C00044660B910249DB92846FFF779FE284613
:104B6C00FFF718FF0446CDE76FF09204CAE73868E8
:104B7C0001F056FD204619B0BDE8F04F01F0D0BB56
:104B8C00102D4FF001024FF010011B48AB4628BF0F
:104B9C004FF0100B01F030FC174A10232021CDE907
:104BAC000094A2F1200000F029F8824668B10020A0
:104BBC00FFF74EFE386801F033FD504601F0B0FBB4
:104BCC000446204619B0BDE8F08F5A464046494687
:104BDC0001F0C7FDD6E90C32013342F10002C6E9FF
:104BEC000C32A5EB0B05D844B5E76FF08604E8E76B
:104BFC009C020020700500209005002037B54FF472
:104C0C0080740194214C41F00051A16140F61101D6
:104C1C0043F00053A3622123E16104F1200161619F
:104C2C0001212262E362069A194B01AD1A60079AC0
:104C3C00256042F000521125C3E901122022DFF851
:104C4C0054C02061C4E902C504F1100565606162BD
:104C5C00DA60BFF35F8F4FF0A3421460BFF35F8F36
:104C6C00BFF35F8F1361BFF35F8FBFF35F8F0323BE
:104C7C005363BFF35F8FBFF35F8F9363BFF35F8F9C
:104C8C0001F097FC431CFBD003B030BD040A00209C
:104C9C00F409002004000020BFF35F8F094A136859
:104CAC00BFF35F8F43F48071BFF35F8F1160BFF36D
:104CBC005F8F23F48073BFF35F8F1360BFF35F8F3D
:104CCC00704700BF0010805108B5FFF7E5FFBFF338
:104CDC005F8F064A1368BFF35F8F43F00103BFF386
:104CEC005F8F1360BFF35F8F08BD00BF0010805152
:104CFC0070B50026C0E9006605460C46FFF702FBBE
:104D0C0001232B70FFF7C8FFBFF35F8F204BDB68CD
:104D1C00BFF35F8F9B08013BACB3226842B19A4250
:104D2C0005D9FFF70FFB6FF03F002E7070BD1346D7
:104D3C00D4E90115E068002908BF4FF40071002880
:104D4C0008BFF1202469BFF35F8F114A9360BFF352
:104D5C005F8FBFF35F8F1564BFF35F8FBFF35F8F00
:104D6C005064BFF35F8FBFF35F8F5163BFF35F8FEF
:104D7C0044F4802444F00104BFF35F8F1460BFF34C
:104D8C005F8F0020D2E74FF40071F1202546DAE75F
:104D9C000010805170B503780D461446002B52D08C
:104DAC00BFF35F8F2C4A136BBFF35F8F03F00E01C1
:104DBC000A294BD013F00C0F02D14FF0FF3070BD0D
:104DCC004368D3B9BFF35F8F5368BFF35F8F032B77
:104DDC00F3D9224B2249BFF35F8FD2F88060BFF327
:104DEC005F8FBFF35F8F43F8046BBFF35F8F8B4212
:104DFC00F1D1FFF769FF01234360BFF35F8F164BBF
:104E0C009A68BFF35F8F0132B4EB021F21D8BFF356
:104E1C005F8F5A68BFF35F8FB4EB820FCDD884B12C
:104E2C00BFF35F8FD3F88020BFF35F8F291D05F888
:104E3C00012BA9424FEA122204F1FF34EFD0002CCF
:104E4C00F5D10020BBE76FF02000B8E76FF0510000
:104E5C00B5E76FF03F00B2E70010805110108051A1
:104E6C002010805173B50446EFF31186202383F391
:104E7C001288BFF36F8F8368594003EA02050A401A
:104E8C0053400022009309496B46019201F08CF9C2
:104E9C00DDE9003223EA020304F10C003146A36081
:104EAC0001F036F9284602B070BD00BF0F67000054
:104EBC000FB407B504AA064B52F8041B18680192EC
:104ECC0000F028F803B05DF804EB04B0704700BFA5
:104EDC00FC720000F8B50E4B06461D68AB789B07BC
:104EEC0012D56F6816F8014B29462CB90A20B84721
:104EFC00002805DB204609E02046B8470028F1DAF7
:104F0C00AB7843F00403AB704FF0FF30F8BD00BF3B
:104F1C00FC7200002DE9F04F43688BB0804692463E
:104F2C00009383789C0740F1F980002508780028CD
:104F3C0000F0F68025280AD04B1C01930135414620
:104F4C00009B98470028C0F2E3800199EEE74E7869
:104F5C008B1C252E0193F1D000270A22B9463C4622
:104F6C001F2C22D8A6F12003102B20D8DFE803F049
:104F7C00141F1F1A1F1F1F0B1F1F1F121F171F1F6E
:104F8C00090044F00104019B13F8016B0193002EFE
:104F9C00E6D13AE044F0020444F00404F3E744F0B0
:104FAC000804F0E744F01004EDE77F2C24D8A6F1B8
:104FBC003003092B08D860064EBF02FB073744F0BC
:104FCC00200402FB0939DEE72A2E0DD161065AF8BE
:104FDC00043B53D4002BA7BF44F020049946C3F1E3
:104FEC00000944F02804CEE72E2E05D1630600F10B
:104FFC00978044F04004C6E76C2E2ED028D8682E3B
:10500C0032D06A2E37D04C2E35D0002F46F02003EC
:10501C00B8BF24F04004A3F16502BCBF0027A4B2C2
:10502C00022A01D9612B2BD10AF1070A07279D4EC1
:10503C002AF0070A0AF1080A210760D506EB070BCC
:10504C0034465C455DD1AE1BA9EB0709A21959E1A9
:10505C00742E98D07A2E96D0D7E7260648BF44F403
:10506C00007444F080048EE7E00548BF44F40074FB
:10507C0044F4807487E744F4207484E71F4682E785
:10508C00A6F16302122A00F2D880DFE812F01300B6
:10509C004D00D600D600D600D6004D00D600D60066
:1050AC00D600D600D600E800D100D600D6001A00F3
:1050BC00D600A0005AF8043B012704AE8DF810303E
:1050CC00BAE75AF8046B784B002E08BF1E4614F052
:1050DC00400F304614BF39464FF0FF3101F069FBE9
:1050EC000746A9E741462020009B984700280FDB84
:1050FC00013CA742F6D34D44A1462D1B9EE74C46DE
:10510C00F7E7414614F8010B009B9847002898DA02
:10511C0098F8023043F0040388F802304FF0FF3562
:10512C0028460BB0BDE8F08F220630D5A3052AD552
:10513C000AF1070A2AF007039A4659685AF8080B2D
:10514C0024F0100B00291FFA8BFB2FDA40424BF492
:10515C00806B61EB410104AC0A23224601F035FB64
:10516C001BF0400FA0EB040200F08E802BF001042A
:10517C009742A4B240F38F80002E40F08E802BF02B
:10518C001104A4B21DE05AF8040BC117D8E7E005CE
:10519C005AF8041B01D40846F7E7A20547BF48B2EA
:1051AC0041F3C01108B241F3C031C9E750EA010321
:1051BC00D1D16306CFD5002FCDD124F011043A46BE
:1051CC00A4B23B4640F206410C4262D124E024F0EA
:1051DC0010040A23A4B214F0800243D014F400711A
:1051EC0017BF0AF1070A5AF8040B2AF00702924675
:1051FC001CBF51685AF8080B50EA01023ED124F04A
:10520C00160B62061FFA8BFB3CD5002F3AD124F00B
:10521C0017043A463B46A4B221075AD4E10705D5F8
:10522C00994572DDA9EB03039F184B469B464AE058
:10523C0044F0100410237826CDE7782B04D1C6F166
:10524C00780343F01003C6E741462520009B98479E
:10525C000028FFF65DAF02354146304670E6082364
:10526C000026B8E714F480715AF8040BC4D014F477
:10527C0000711ABFC0B2114680B2BDE724F006041B
:10528C001FFA84FB04AC68E713465C46E10699D52B
:10529C002EB90133C0E71346F8E73B46F6E7023375
:1052AC00BAE700BF987A0000917A0000CDE902328B
:1052BC0041462020009B98470028FFF629AF0BF1B0
:1052CC00010BDDE90232D945F0DCEB1A03EB0B05DF
:1052DC005B46E10627D541463020CDE90232009BE2
:1052EC0098470028FFF614AFDDE902327EB901358C
:1052FC002F44791B8A4229DB144604AE94BB2A4402
:10530C00A9EB03091546914440E017468EE7023598
:10531C0041463046CDE90232009B98470028DDE932
:10532C000232E5DAF4E640F206410C42E0D014F029
:10533C00020F05F10105414614BF2B20202014F467
:10534C00806FCDE9023218BF2D20E5E7CDE902329E
:10535C004146009B3020013598470028DDE9023298
:10536C00C7DAD5E6013C4146CDE90232305D009BFF
:10537C0098470028DDE90232C0DAC9E64146202010
:10538C00009B013598470028FFF6C2AEA9EB050338
:10539C00002BF3DCD9E500BF704700EBC10040885F
:1053AC0040087047F8B50346FFF7F7FFB0FA80F0F6
:1053BC00C0F11F0003EB800CDCF81060CA00171D55
:1053CC000C4606328DB256B9012101FA00F0D968AB
:1053DC000143D960CCF81040DD539D52F8BDF1006B
:1053EC000431585AD85303EBC0009E52C5805D520D
:1053FC00F4E7043A2DE9F843CC1D114424F00704DA
:10540C0021F00706A6EB04084FEAD807B7FA87F293
:10541C004FF00009C2F12405AD000735C2F120029E
:10542C00ED0804604946A760C4F80C90920004F1A2
:10543C00100001F0A3F9AAB2530043F001036380FA
:10544C007B1B9BB204EBC5015800A4F8009048806C
:10545C0024F83520A6F8029024F8083004EBC70392
:10546C005A88294642F001025A802046BDE8F8438A
:10547C00FFF798BF002070470FB407B504A951F887
:10548C00040B0191FBF716FA03B05DF804EB04B0C2
:10549C00704708B5EFF31183202383F31288BFF311
:1054AC006F8FFCF74DFA038B13F0070306D10368DB
:1054BC00002B18BF032008BF00207047022B05D11A
:1054CC00408BB0FA80F0400980007047012B04D16A
:1054DC000368002B18BF0520EDE70020704710B5BE
:1054EC000C4600B111B96FF0150010BD081D00F08D
:1054FC0087F80028F9D1A368032BF6D9F3E72DE937
:10550C00F0410D4607461946281D90461E4600F0F0
:10551C0088F8044638B13346424629463846A446F4
:10552C00BDE8F0416047BDE8F08110B4EFF31182A3
:10553C00202484F31288BFF36F8F416110BC0121CA
:10554C00FBF7EAB938B50C46054658B151B10B68B2
:10555C0043B14B6833B11C22002101F00FF900203C
:10556C002C6138BD6FF01500FBE7F8B504460E460C
:10557C00FFF7B5FF051E3BDBEFF31182202383F30E
:10558C001288BFF36F8F4FF6FF71638B278B8B42A3
:10559C0007F007072ED0062F2FD8DFE807F0182EBC
:1055AC00082E180418006FF08505002303E0013362
:1055BC0063830225012382F31188BFF36F8FBBB184
:1055CC0000233A4631462046FFF799FF10E00023AE
:1055DC003360636823B9C4E9006627B13D46E4E74C
:1055EC001E606660F9E702212046FBF795F93D46FF
:1055FC002846F8BD6FF00A05D7E76FF00405D4E72D
:10560C00034658B1426802F00302012A03D0032A70
:10561C0004D1026812B10020986070476FF0150039
:10562C0070474268034602F00302032A4FF000025F
:10563C00816014BF104600685A6070477047C36998
:10564C001BB11B7900200B7070476FF0570070472F
:10565C00C3693BB1DB682BB1DB691879B0FA80F018
:10566C00400970470120704770B5C56904460E4665
:10567C000DB103232B712046FFF7EAFFA8B10321DC
:10568C002046B047002802DA10F1860F0ED1012116
:10569C0025B920463346BDE870401847204629718D
:1056AC00B047002802DB00232B71002070BD01F0F5
:1056BC0065B801F056B801460068FBF7A3BA08B507
:1056CC00FBF7D0FABDE80840FBF716BE002101201D
:1056DC00FBF798BAD0F89C3083F30B8870476FF0C7
:1056EC008500704761B662B680F31188BFF36F8F87
:1056FC00704772B6002383F31188BFF36F8FBFF32B
:10570C004F8F30BF62B6BFF36F8F704772B60023F6
:10571C0083F31188BFF36F8FBFF34F8F20BF80F3DC
:10572C001188BFF36F8F62B6704740E800F313F433
:10573C00803FD8B208BF6FF01500704730B50C68C9
:10574C004B6885B00A894D890094013B24F01F04F5
:10575C00234402F01F0242EA451223F01F0369465C
:10576C008DF808200393FBF77FFE05B030BD08B51C
:10577C00FCF75AF8002008BD0C220369C9B202FBE1
:10578C000133186C00F00700704770B50346C9B2BE
:10579C000069EFF31186202484F31288BFF36F8F16
:1057AC000C2505FB0104246C14F0C00401D0A242AA
:1057BC0010D1012205FB01000264002086F3118840
:1057CC00BFF36F8F28B95B6803EBC1035B68984725
:1057DC00002070BD4FF0FF30F0E78022FFF7D5BFFF
:1057EC00F8B5069F05460469C9B2EFF3118C202069
:1057FC0080F31288BFF36F8F0C2606FB0146306CCA
:10580C0000F0070EBEF1010F11D1376400268CF3A6
:10581C001188BFF36F8F46B90C2000FB0144C4E91B
:10582C000E236B6853F8313098473046F8BD00F0C2
:10583C00C00087420CBF6FF077064FF0FF36E6E7EB
:10584C0013B580240094FFF7CBFF02B010BD10B449
:10585C001C240069CBB204FB0300002110BC1047D0
:10586C001046FDF7D5BE00F069B9FCF7ABBF436835
:10587C0000205B68DB680B607047436802EA01003C
:10588C005B6821EA02015860002099607047436808
:10589C0000205B6859607047436800205B68996022
:1058AC00704743685B681A6821EA0200114058602F
:1058BC0000209960704730B50369586800B3002424
:1058CC00884219D108688CB99C685860A14200D1F3
:1058DC009860002008602AB15A680A609A6859607A
:1058EC0002B9996000200FE02846E9E7206098682B
:1058FC00814208BF9C60ECE705680446002DF3D19B
:10590C00002AE9D16FF0150030BD00207047FDF77B
:10591C00C1B940F6B31303600020704730B543683B
:10592C001360057A446804EBC504A34202D36FF0FC
:10593C00010030BD5C7908338C42F1D10020F8E7CE
:10594C0043681B68D3F83031704743681B68D3F841
:10595C008004C3F88004704742681368D3F84C0184
:10596C0050B10020926A12780A70C3F84C01D3F837
:10597C004C2101229A6270474FF0FF30704713B5EB
:10598C0001AA0446FFF7CAFF002805DB019B226829
:10599C0019791868FCF796FB02B010BD0129F8B50F
:1059AC000C4616D146680021F0683568FFF7E7FF12
:1059BC000823C5F80035337A4BB9B26AC5F8042709
:1059CC00C5F80847C5F84C31D5F84C31AC6200200D
:1059DC00F8BD81BB46683468D4F85031B3B10123AB
:1059EC00E362D4F82431002BFBD00023C4F85031EF
:1059FC00D4F85021C4F82431D4F82421C4F84C3103
:105A0C00D4F84C21C4F81431D4F814314FF47A750D
:105A1C0043681F68D7F8303123B9012000F026F80D
:105A2C00013DF7D10023C4F80035F0680121BDE831
:105A3C00F840FFF7A4BF6FF08500C9E708B5022056
:105A4C00FCF7B2F8002008BD08B5FEF7B5FB48B16D
:105A5C00002383F31188BFF36F8F0423184602DFF2
:105A6C006FF0040008BD03460020184700F09ABAF6
:105A7C00024610B5116891B1B1FA81F3C3F11F0060
:105A8C000123834021EA0303D2E8EF4F8C4204D177
:105A9C00C2E8EC3FBCF1000FF6D1EBD110BD6FF0BA
:105AAC000B00FBE710B50368CB40DB0710D40123D8
:105ABC008B40026843EA0201D0E8EF4F944204D1D4
:105ACC00C0E8EC1FBCF1000FF6D1F2D1002010BDE4
:105ADC006FF01500FBE72DE9F04116461F464FF01D
:105AEC00010800F160404C1E0444C50BE40BA542B8
:105AFC0001D9BDE8F08105F00701C5F3C7003246B6
:105B0C0008FA01F1B8470135F1E7FCF7F7BD10B120
:105B1C00012802D07047FCF755BEFCF703BF18B143
:105B2C00012803D100F00CB800F008B8704708B594
:105B3C00FCF72CFFBDE80840FCF784BEFCF716BE52
:105B4C00FCF7B8BEF7B51646DDE90847019001A889
:105B5C001D46FCF755FF019BB6F1000C18BF4FF02A
:105B6C00010C00EB83000B1E18BF0123002D43EA30
:105B7C004C030CBF4FF0000C4FF00C0C002C43EA04
:105B8C000C030CBF4FF0000C4FF4706C002F43EA69
:105B9C000C030CBF4FF0000C4FF4403CD0F88020AD
:105BAC0043EA0C0322EA030301B109780EB13678FB
:105BBC00760019430DB12D78AD0031430CB124782A
:105BCC00240229430FB13F783F040C433C43C0F8F7
:105BDC00804003B0F0BD1FB50DF10F0301930023FE
:105BEC008DF80F101A4619460093FFF7ABFF05B05E
:105BFC005DF804FB10B504460846FCF711FF04EBF6
:105C0C004004207DC0F3401010BD10B5044608467A
:105C1C00FCF706FF04EB4004207DC0F3400010BDF0
:105C2C0010B504460846FCF7FBFE04EB4004A08AC2
:105C3C00400B10BD70B5044608461646FCF7F0FE46
:105C4C00083034F810300D46DA0509D5C3F3432378
:105C5C0004EBC3023146284654F833305268984757
:105C6C00A3682BB131462846E268BDE8704018475E
:105C7C0070BD10B504460846FCF7D2FE04EB40009C
:105C8C00838ADA051DD5C3F3432123F4F8538382A9
:105C9C0004F1120204F1580032F8023F13F4807F31
:105CAC0003D0C3F3432399420BD08242F4D1002298
:105CBC0004EBC1035A6004F16000BDE81040FFF72B
:105CCC00F1BE10BDF0B50446002001270546844600
:105CDC0095420AD1D4F8443133B10023C4F844318D
:105CEC00D4F8443140F40030F0BDEBB29B0003F526
:105CFC0080769B0807FA03F3194208D054F806E0A3
:105D0C00BEF1000F03D044F806C0A6591843013564
:105D1C00DEE738B504460D46FFF76CFFA8B1204608
:105D2C00FFF773FF88B92046FFF77AFF012322683B
:105D3C008340C2F81833236803EB8000D0F8103589
:105D4C0023F00303C0F8103538BD2846BDE83840B1
:105D5C000021FFF740BF2DE9F0431746044685B0FC
:105D6C000846FCF75DFED7F800800E460546B8F1F4
:105D7C00000F1ED02046FFF748FF18B12046FFF752
:105D8C0039FF20BB00230DF10F02CDE900338DF854
:105D9C000E308DF80F30304643460DF10E01FFF7F3
:105DAC00D1FE04EB4502938A23F0020343F0010376
:105DBC0093827B689BB33146204693F80080D3F8DE
:105DCC000490FFF722FF28B1B9F1000F1FD06FF03C
:105DDC00150027E004EB4500838A23F4604323F08D
:105DEC0020038382B9F1000F11D0B8F1030FEED864
:105DFC007B6821685B6893F800C04FEA8C031944F8
:105E0C00B8F1000F11D1C1F81085C1F8108504EB61
:105E1C004502938A23F01C0343EA88039382BB68F0
:105E2C004BBB002005B0BDE8F083D1F8102522F063
:105E3C000302C1F8102522681344D3F8102522F46C
:105E4C00473222F47C72C3F8102541F6F072D3F875
:105E5C00101502EA061242EA08420A43C3F810255A
:105E6C0004EB4C03A3F86460838A43EA4C3343F09D
:105E7C0020038382CBE73146D3E900782046FFF735
:105E8C00F8FE002FCDD063689F4206D004F160006D
:105E9C00FFF7EEFD002804DAC4E7A3689845F5D1B6
:105EAC00002004EBC003C3E9017804EB4505AB8A81
:105EBC00C0B243EA402343F48073AB82B1E7C0E93C
:105ECC000312704770B504461546FFF793FE48B1B0
